09324BOOMERANG LATIN MUSIC                   201202                         00001YOUTUBE             000225565555ADICTO A TI                         201104T00134189+000000000020000000000615+                               00000000  MXF011100033
09324BOOMERANG LATIN MUSIC                   201202                         00001YOUTUBE             000216823541DEJAME IR                           201104T00076120+000000000066670000001164+                               00000000  MXF011100038
09324BOOMERANG LATIN MUSIC                   201202                         00001YOUTUBE             000191986912GOMA DE MASCAR                      201104T01403276+000000000060000000019322+                               00000000  MXF061000266
09324BOOMERANG LATIN MUSIC                   201202                         00001YOUTUBE             000191988220NO TENGO MIEDO                      201104T00126433+000000000033340000000967+                               00000000  MXF061000272
09324BOOMERANG LATIN MUSIC                   201202                         00001YOUTUBE             000191987125SE DESINTEGRA EL AMOR               201104T01741639+000000000045000000017986+                               00000000  MXF061000273
09324BOOMERANG LATIN MUSIC                   201202                         00001YOUTUBE             000216475570SI TE VAS                           201104T00141109+000000000050000000001619+                               00000000  MXF011100031
09324BOOMERANG LATIN MUSIC                   201202                         00006OMNIFONE            000225565176ADICTO A TI                         201104T00000028+000000000020000000000063+                               00000000  MXF011100033
09324BOOMERANG LATIN MUSIC                   201202                         00006OMNIFONE            000216475080DEJAME IR                           201104T00000029+000000000066670000000220+                               00000000  MXF011100038
09324BOOMERANG LATIN MUSIC                   201202                         00006OMNIFONE            000216476469ENREDAME                            201104T00000254+000000000100000000002894+                               00000000  MXF010900637
09324BOOMERANG LATIN MUSIC                   201202                         00006OMNIFONE            000191986912GOMA DE MASCAR                      201104T00000018+000000000060000000000123+                               00000000  MXF061100036
09885WARNER CHAPPELL MUSIC MEXICO S.A. DE C.V201202                         00500SONY CORONA DOWNLOAD000258218849WALKING                             201104T00000002+000000000075000000000053+                               00000000  DEK560800004
09885WARNER CHAPPELL MUSIC MEXICO S.A. DE C.V201202                         00503SONY CORONA CONCIERT000066388347SKABIO                              201104T00000001+000000000050000000071427+                               00000000