Sony Music Entertainment PhiliWARNER/CHAPPELL MUSIC PHILIPPI201001201006PHP DOLLAR
9995002171174   GBCTA0900006   I DO NOT HOOK UP                        GREG WELLS GREG WELLS KARA DIOGUARDI KARA DIOGUARDI KATY PERRingback Tone                 0333400000000000000001054+0000177+MECHAN       000000022300000005950200910
9995002171174   GBCTA0900006   I DO NOT HOOK UP                        GREG WELLS GREG WELLS KARA DIOGUARDI KARA DIOGUARDI KATY PERRingback Tone                 0333400000000000000001607+0000135+MECHAN       000000044600000011900200910
9995002171174   GBCTA0900006   I DO NOT HOOK UP                        GREG WELLS GREG WELLS KARA DIOGUARDI KARA DIOGUARDI KATY PERRingback Tone                 0333400000000000000004284+0000257+MECHAN       000000062500000016670200910
9995002171174   GBCTA0900006   I DO NOT HOOK UP                        GREG WELLS GREG WELLS KARA DIOGUARDI KARA DIOGUARDI KATY PERRingback Tone                 0333400000000000000032721+0000916+MECHAN       000000133900000035720200910
9995002171174   GBCTA0900006   I DO NOT HOOK UP                        GREG WELLS GREG WELLS KARA DIOGUARDI KARA DIOGUARDI KATY PERRingback Tone                 0333400000000000000001000+0000014+MECHAN       000000267900000071430200910
9995002171174   GBCTA0900006   I DO NOT HOOK UP                        GREG WELLS GREG WELLS KARA DIOGUARDI KARA DIOGUARDI KATY PERRingback Tone                 0333400000000000000000060+0000005+MECHAN       000000044600000012000200911
9995002171174   GBCTA0900006   I DO NOT HOOK UP                        GREG WELLS GREG WELLS KARA DIOGUARDI KARA DIOGUARDI KATY PERRingback Tone                 0333400000000000000000233+0000014+MECHAN       000000062500000016640200911
9995002171174   GBCTA0900006   I DO NOT HOOK UP                        GREG WELLS GREG WELLS KARA DIOGUARDI KARA DIOGUARDI KATY PERRingback Tone                 0333400000000000000000893+0000025+MECHAN       000000133900000035720200911
9995002171174   GBCTA0900006   I DO NOT HOOK UP                        GREG WELLS GREG WELLS KARA DIOGUARDI KARA DIOGUARDI KATY PERRingback Tone                 0333400000000000000002786+0000039+MECHAN       000000267900000071440200911
9995002171174   GBCTA0900006   I DO NOT HOOK UP                        GREG WELLS GREG WELLS KARA DIOGUARDI KARA DIOGUARDI KATY PERRingback Tone                 0333400000000000000000667+0000112+MECHAN       000000022300000005960200912
9995002171174   GBCTA0900006   I DO NOT HOOK UP                        GREG WELLS GREG WELLS KARA DIOGUARDI KARA DIOGUARDI KATY PERRingback Tone                 0333400000000000000000989+0000083+MECHAN       000000044600000011920200912
9995002171174   GBCTA0900006   I DO NOT HOOK UP                        GREG WELLS GREG WELLS KARA DIOGUARDI KARA DIOGUARDI KATY PERRingback Tone                 0333400000000000000003667+0000220+MECHAN       000000062500000016670200912
9995002171174   GBCTA0900006   I DO NOT HOOK UP                        GREG WELLS GREG WELLS KARA DIOGUARDI KARA DIOGUARDI KATY PERRingback Tone                 0333400000000000000015253+0000427+MECHAN       000000133900000035720200912
9995002171174   GBCTA0900006   I DO NOT HOOK UP                        GREG WELLS GREG WELLS KARA DIOGUARDI KARA DIOGUARDI KATY PERRingback Tone                 0333400000000000000002072+0000029+MECHAN       000000267900000071450200912
9995002171174   GBCTA0900006   I DO NOT HOOK UP                        GREG WELLS GREG WELLS KARA DIOGUARDI KARA DIOGUARDI KATY PERRingback Tone                 0333400000000000000000614+0000086+MECHAN       000000026800000007140201001
9995002171174   GBCTA0900006   I DO NOT HOOK UP                        GREG WELLS GREG WELLS KARA DIOGUARDI KARA DIOGUARDI KATY PERRingback Tone                 0333400000000000000000822+0000069+MECHAN       000000044600000011910201001
9995002171174   GBCTA0900006   I DO NOT HOOK UP                        GREG WELLS GREG WELLS KARA DIOGUARDI KARA DIOGUARDI KATY PERRingback Tone                 0333400000000000000003134+0000188+MECHAN       000000062500000016670201001
9995002171174   GBCTA0900006   I DO NOT HOOK UP                        GREG WELLS GREG WELLS KARA DIOGUARDI KARA DIOGUARDI KATY PERRingback Tone                 0333400000000000000010288+0000288+MECHAN       000000133900000035720201001
9995002171174   GBCTA0900006   I DO NOT HOOK UP                        GREG WELLS GREG WELLS KARA DIOGUARDI KARA DIOGUARDI KATY PERRingback Tone                 0333400000000000000004430+0000062+MECHAN       000000267900000071450201001
9995002171174   GBCTA0900006   I DO NOT HOOK UP                        GREG WELLS GREG WELLS KARA DIOGUARDI KARA DIOGUARDI KATY PERRingback Tone                 0333400000000000000000429+0000072+MECHAN       000000022300000005960201002
9995002171174   GBCTA0900006   I DO NOT HOOK UP                        GREG WELLS GREG WELLS KARA DIOGUARDI KARA DIOGUARDI KATY PERRingback Tone                 0333400000000000000000619+0000052+MECHAN       000000044600000011900201002
9995002171174   GBCTA0900006   I DO NOT HOOK UP                        GREG WELLS GREG WELLS KARA DIOGUARDI KARA DIOGUARDI KATY PERRingback Tone                 0333400000000000000002801+0000168+MECHAN       000000062500000016670201002
9995002171174   GBCTA0900006   I DO NOT HOOK UP                        GREG WELLS GREG WELLS KARA DIOGUARDI KARA DIOGUARDI KATY PERRingback Tone                 0333400000000000000008895+0000249+MECHAN       000000133900000035720201002
9995002171174   GBCTA0900006   I DO NOT HOOK UP                        GREG WELLS GREG WELLS KARA DIOGUARDI KARA DIOGUARDI KATY PERRingback Tone                 0333400000000000000002572+0000036+MECHAN       000000267900000071440201002
9995002171174   GBCTA0900006   I DO NOT HOOK UP                        GREG WELLS GREG WELLS KARA DIOGUARDI KARA DIOGUARDI KATY PERRingback Tone                 0333400000000000000000375+0000063+MECHAN       000000022300000005950201003
9995002171174   GBCTA0900006   I DO NOT HOOK UP                        GREG WELLS GREG WELLS KARA DIOGUARDI KARA DIOGUARDI KATY PERRingback Tone                 0333400000000000000000548+0000046+MECHAN       000000044600000011910201003
9995002171174   GBCTA0900006   I DO NOT HOOK UP                        GREG WELLS GREG WELLS KARA DIOGUARDI KARA DIOGUARDI KATY PERRingback Tone                 0333400000000000000002083+0000125+MECHAN       000000062500000016660201003
9995002171174   GBCTA0900006   I DO NOT HOOK UP                        GREG WELLS GREG WELLS KARA DIOGUARDI KARA DIOGUARDI KATY PERRingback Tone                 0333400000000000000008144+0000228+MECHAN       000000133900000035720201003
9995002171174   GBCTA0900006   I DO NOT HOOK UP                        GREG WELLS GREG WELLS KARA DIOGUARDI KARA DIOGUARDI KATY PERRingback Tone                 0333400000000000000003001+0000042+MECHAN       000000267900000071450201003
9995002171174   GBCTA0900006   I DO NOT HOOK UP                        GREG WELLS GREG WELLS KARA DIOGUARDI KARA DIOGUARDI KATY PERRingback Tone                 0333400000000000000000393+0000066+MECHAN       000000022300000005950201004
9995002171174   GBCTA0900006   I DO NOT HOOK UP                        GREG WELLS GREG WELLS KARA DIOGUARDI KARA DIOGUARDI KATY PERRingback Tone                 0333400000000000000000583+0000049+MECHAN       000000044600000011900201004
9995002171174   GBCTA0900006   I DO NOT HOOK UP                        GREG WELLS GREG WELLS KARA DIOGUARDI KARA DIOGUARDI KATY PERRingback Tone                 0333400000000000000002284+0000137+MECHAN       000000062500000016670201004
9995002171174   GBCTA0900006   I DO NOT HOOK UP                        GREG WELLS GREG WELLS KARA DIOGUARDI KARA DIOGUARDI KATY PERRingback Tone                 0333400000000000000008716+0000244+MECHAN       000000133900000035720201004
9995002171174   GBCTA0900006   I DO NOT HOOK UP                        GREG WELLS GREG WELLS KARA DIOGUARDI KARA DIOGUARDI KATY PERRingback Tone                 0333400000000000000000929+0000013+MECHAN       000000267900000071460201004
9995002171174   GBCTA0900006   I DO NOT HOOK UP                        GREG WELLS GREG WELLS KARA DIOGUARDI KARA DIOGUARDI KATY PERRingtone - Master             0333400000000000000000357+0000005+MECHAN       000000267900000071400200909
9995002171174   GBCTA0900006   I DO NOT HOOK UP                        GREG WELLS GREG WELLS KARA DIOGUARDI KARA DIOGUARDI KATY PERRingtone - Master             0333400000000000000000214+0000003+MECHAN       000000267900000071330200910
9995002171174   GBCTA0900006   I DO NOT HOOK UP                        GREG WELLS GREG WELLS KARA DIOGUARDI KARA DIOGUARDI KATY PERAudio Track                   0333400000000000000095257+0000800+MECHAN       000000446400000119070200904
9995002171174   GBCTA0900006   I DO NOT HOOK UP                        GREG WELLS GREG WELLS KARA DIOGUARDI KARA DIOGUARDI KATY PERAudio Track                   0333400000000000000000953+0000008+MECHAN       000000446400000119130200905
9995002171174   GBCTA0900006   I DO NOT HOOK UP                        GREG WELLS GREG WELLS KARA DIOGUARDI KARA DIOGUARDI KATY PERAudio Track                   0333400000000000000009168+0000077+MECHAN       000000446400000119060200906
9995002171174   GBCTA0900006   I DO NOT HOOK UP                        GREG WELLS GREG WELLS KARA DIOGUARDI KARA DIOGUARDI KATY PERAudio Track                   0333400000000000000013455+0000113+MECHAN       000000446400000119070200907
9995002171174   GBCTA0900006   I DO NOT HOOK UP                        GREG WELLS GREG WELLS KARA DIOGUARDI KARA DIOGUARDI KATY PERAudio Track                   0333400000000000000006192+0000052+MECHAN       000000446400000119080200908
0000000049687   USAR10000022   I HAVE NOTHING (REMASTERED: 2000)       FOSTER D/THOMPSON L/ARR:HOUSTON W                           Ringback Tone                 0375000000000000000000080+0000001+MECHAN       000000267900000080000200911
0000000049687   USAR10000022   I HAVE NOTHING (REMASTERED: 2000)       FOSTER D/THOMPSON L/ARR:HOUSTON W                           Ringback Tone                 0375000000000000000000080+0000001+MECHAN       000000267900000080000200912
0000000049687   USAR10000022   I HAVE NOTHING (REMASTERED: 2000)       FOSTER D/THOMPSON L/ARR:HOUSTON W                           Ringback Tone                 0375000000000000000000080+0000001+MECHAN       000000267900000080000201001
0000000049687   USAR10000022   I HAVE NOTHING (REMASTERED: 2000)       FOSTER D/THOMPSON L/ARR:HOUSTON W                           Ringback Tone                 0375000000000000000000080+0000001+MECHAN       000000267900000080000201002
0000000049687   USAR10000022   I HAVE NOTHING (REMASTERED: 2000)       FOSTER D/THOMPSON L/ARR:HOUSTON W                           Audio Track                   0375000000000000000000536+0000004+MECHAN       000000446400000134000200810
0000000049687   USAR10000022   I HAVE NOTHING (REMASTERED: 2000)       FOSTER D/THOMPSON L/ARR:HOUSTON W                           Audio Track                   0375000000000000000001071+0000008+MECHAN       000000446400000133880200811
0000000049687   USAR10000022   I HAVE NOTHING (REMASTERED: 2000)       FOSTER D/THOMPSON L/ARR:HOUSTON W                           Audio Track                   0375000000000000000000670+0000005+MECHAN       000000446400000134000200812
0000000049687   USAR10000022   I HAVE NOTHING (REMASTERED: 2000)       FOSTER D/THOMPSON L/ARR:HOUSTON W                           Audio Track                   0375000000000000000000670+0000005+MECHAN       000000446400000134000200901
0000000049687   USAR10000022   I HAVE NOTHING (REMASTERED: 2000)       FOSTER D/THOMPSON L/ARR:HOUSTON W                           Audio Track                   0375000000000000000000938+0000007+MECHAN       000000446400000134000200902
0000000049687   USAR10000022   I HAVE NOTHING (REMASTERED: 2000)       FOSTER D/THOMPSON L/ARR:HOUSTON W                           Audio Track                   0375000000000000000000804+0000006+MECHAN       000000446400000134000200903
0000000049687   USAR10000022   I HAVE NOTHING (REMASTERED: 2000)       FOSTER D/THOMPSON L/ARR:HOUSTON W                           Audio Track                   0375000000000000000000402+0000003+MECHAN       000000446400000134000200904
0000000049687   USAR10000022   I HAVE NOTHING (REMASTERED: 2000)       FOSTER D/THOMPSON L/ARR:HOUSTON W                           Audio Track                   0375000000000000000000670+0000005+MECHAN       000000446400000134000200905
0000000049687   USAR10000022   I HAVE NOTHING (REMASTERED: 2000)       FOSTER D/THOMPSON L/ARR:HOUSTON W                           Audio Track                   0375000000000000000000804+0000006+MECHAN       000000446400000134000200906
0000000049687   USAR10000022   I HAVE NOTHING (REMASTERED: 2000)       FOSTER D/THOMPSON L/ARR:HOUSTON W                           Audio Track                   0375000000000000000001473+0000011+MECHAN       000000446400000133910200907
0000000049687   USAR10000022   I HAVE NOTHING (REMASTERED: 2000)       FOSTER D/THOMPSON L/ARR:HOUSTON W                           Audio Track                   0375000000000000000000670+0000005+MECHAN       000000446400000134000200908
9995002131903   USSM10705928   P.Y.T. (PRETTY YOUNG THING) 2008 WITH WIMICHAEL JACKSON MICHAEL JACKSON                             Ringback Tone                 0500000000000000000000075+0000003+MECHAN       000000062500000025000200911
9995002131903   USSM10705928   P.Y.T. (PRETTY YOUNG THING) 2008 WITH WIMICHAEL JACKSON MICHAEL JACKSON                             Ringback Tone                 0500000000000000000000107+0000002+MECHAN       000000133900000053500200911
9995002131903   USSM10705928   P.Y.T. (PRETTY YOUNG THING) 2008 WITH WIMICHAEL JACKSON MICHAEL JACKSON                             Ringback Tone                 0500000000000000000000050+0000002+MECHAN       000000062500000025000200912
9995002131903   USSM10705928   P.Y.T. (PRETTY YOUNG THING) 2008 WITH WIMICHAEL JACKSON MICHAEL JACKSON                             Ringback Tone                 0500000000000000000000100+0000004+MECHAN       000000062500000025000201001
9995002131903   USSM10705928   P.Y.T. (PRETTY YOUNG THING) 2008 WITH WIMICHAEL JACKSON MICHAEL JACKSON                             Ringback Tone                 0500000000000000000000075+0000003+MECHAN       000000062500000025000201002
9995002131903   USSM10705928   P.Y.T. (PRETTY YOUNG THING) 2008 WITH WIMICHAEL JACKSON MICHAEL JACKSON                             Ringback Tone                 0500000000000000000000054+0000001+MECHAN       000000133900000054000201002
9995002205704   USJI10900398   SUPAMAN HIGH                            OTIS WILLIAMS R. KELLY RADRIC DAVIS WILLIAM HODGE           Ringback Tone                 0150000000000000000000005+0000002+MECHAN       000000022300000002500200910
9995002205704   USJI10900398   SUPAMAN HIGH                            OTIS WILLIAMS R. KELLY RADRIC DAVIS WILLIAM HODGE           Ringback Tone                 0150000000000000000000005+0000001+MECHAN       000000044600000005000200910
9995002205704   USJI10900398   SUPAMAN HIGH                            OTIS WILLIAMS R. KELLY RADRIC DAVIS WILLIAM HODGE           Ringback Tone                 0150000000000000000000008+0000001+MECHAN       000000062500000008000200910
9995002205704   USJI10900398   SUPAMAN HIGH                            OTIS WILLIAMS R. KELLY RADRIC DAVIS WILLIAM HODGE           Ringback Tone                 0150000000000000000000209+0000013+MECHAN       000000133900000016080200910
9995002205704   USJI10900398   SUPAMAN HIGH                            OTIS WILLIAMS R. KELLY RADRIC DAVIS WILLIAM HODGE           Ringback Tone                 0150000000000000000000003+0000001+MECHAN       000000022300000003000200911
9995002205704   USJI10900398   SUPAMAN HIGH                            OTIS WILLIAMS R. KELLY RADRIC DAVIS WILLIAM HODGE           Ringback Tone                 0150000000000000000000008+0000001+MECHAN       000000062500000008000200911
9995002205704   USJI10900398   SUPAMAN HIGH                            OTIS WILLIAMS R. KELLY RADRIC DAVIS WILLIAM HODGE           Ringback Tone                 0150000000000000000000193+0000012+MECHAN       000000133900000016080200911
9995002205704   USJI10900398   SUPAMAN HIGH                            OTIS WILLIAMS R. KELLY RADRIC DAVIS WILLIAM HODGE           Ringback Tone                 0150000000000000000000005+0000001+MECHAN       000000044600000005000200912
9995002205704   USJI10900398   SUPAMAN HIGH                            OTIS WILLIAMS R. KELLY RADRIC DAVIS WILLIAM HODGE           Ringback Tone                 0150000000000000000000008+0000001+MECHAN       000000062500000008000200912
9995002205704   USJI10900398   SUPAMAN HIGH                            OTIS WILLIAMS R. KELLY RADRIC DAVIS WILLIAM HODGE           Ringback Tone                 0150000000000000000000129+0000008+MECHAN       000000133900000016130200912
9995002205704   USJI10900398   SUPAMAN HIGH                            OTIS WILLIAMS R. KELLY RADRIC DAVIS WILLIAM HODGE           Ringback Tone                 0150000000000000000000032+0000001+MECHAN       000000267900000032000200912
9995002205704   USJI10900398   SUPAMAN HIGH                            OTIS WILLIAMS R. KELLY RADRIC DAVIS WILLIAM HODGE           Ringback Tone                 0150000000000000000000013+0000004+MECHAN       000000026800000003250201001
9995002205704   USJI10900398   SUPAMAN HIGH                            OTIS WILLIAMS R. KELLY RADRIC DAVIS WILLIAM HODGE           Ringback Tone                 0150000000000000000000011+0000002+MECHAN       000000044600000005500201001
9995002205704   USJI10900398   SUPAMAN HIGH                            OTIS WILLIAMS R. KELLY RADRIC DAVIS WILLIAM HODGE           Ringback Tone                 0150000000000000000000038+0000005+MECHAN       000000062500000007600201001
9995002205704   USJI10900398   SUPAMAN HIGH                            OTIS WILLIAMS R. KELLY RADRIC DAVIS WILLIAM HODGE           Ringback Tone                 0150000000000000000000177+0000011+MECHAN       000000133900000016090201001
9995002205704   USJI10900398   SUPAMAN HIGH                            OTIS WILLIAMS R. KELLY RADRIC DAVIS WILLIAM HODGE           Ringback Tone                 0150000000000000000000011+0000004+MECHAN       000000022300000002750201002
9995002205704   USJI10900398   SUPAMAN HIGH                            OTIS WILLIAMS R. KELLY RADRIC DAVIS WILLIAM HODGE           Ringback Tone                 0150000000000000000000005+0000001+MECHAN       000000044600000005000201002
9995002205704   USJI10900398   SUPAMAN HIGH                            OTIS WILLIAMS R. KELLY RADRIC DAVIS WILLIAM HODGE           Ringback Tone                 0150000000000000000000030+0000004+MECHAN       000000062500000007500201002
9995002205704   USJI10900398   SUPAMAN HIGH                            OTIS WILLIAMS R. KELLY RADRIC DAVIS WILLIAM HODGE           Ringback Tone                 0150000000000000000000096+0000006+MECHAN       000000133900000016000201002
9995002205704   USJI10900398   SUPAMAN HIGH                            OTIS WILLIAMS R. KELLY RADRIC DAVIS WILLIAM HODGE           Ringback Tone                 0150000000000000000000011+0000004+MECHAN       000000022300000002750201003
9995002205704   USJI10900398   SUPAMAN HIGH                            OTIS WILLIAMS R. KELLY RADRIC DAVIS WILLIAM HODGE           Ringback Tone                 0150000000000000000000011+0000002+MECHAN       000000044600000005500201003
9995002205704   USJI10900398   SUPAMAN HIGH                            OTIS WILLIAMS R. KELLY RADRIC DAVIS WILLIAM HODGE           Ringback Tone                 0150000000000000000000054+0000007+MECHAN       000000062500000007710201003
9995002205704   USJI10900398   SUPAMAN HIGH                            OTIS WILLIAMS R. KELLY RADRIC DAVIS WILLIAM HODGE           Ringback Tone                 0150000000000000000000160+0000010+MECHAN       000000133900000016000201003
9995002205704   USJI10900398   SUPAMAN HIGH                            OTIS WILLIAMS R. KELLY RADRIC DAVIS WILLIAM HODGE           Ringback Tone                 0150000000000000000000018+0000007+MECHAN       000000022300000002570201004
9995002205704   USJI10900398   SUPAMAN HIGH                            OTIS WILLIAMS R. KELLY RADRIC DAVIS WILLIAM HODGE           Ringback Tone                 0150000000000000000000027+0000005+MECHAN       000000044600000005400201004
9995002205704   USJI10900398   SUPAMAN HIGH                            OTIS WILLIAMS R. KELLY RADRIC DAVIS WILLIAM HODGE           Ringback Tone                 0150000000000000000000068+0000009+MECHAN       000000062500000007560201004
9995002205704   USJI10900398   SUPAMAN HIGH                            OTIS WILLIAMS R. KELLY RADRIC DAVIS WILLIAM HODGE           Ringback Tone                 0150000000000000000000112+0000007+MECHAN       000000133900000016000201004
2600000046304   USAR19900870   THANK YOU (ALBUM VERSION)               WILLIAM HODGE                                               Ringback Tone                 0600000000000000000000450+0000007+MECHAN       000000133900000064290200911
2600000046304   USAR19900870   THANK YOU (ALBUM VERSION)               WILLIAM HODGE                                               Ringback Tone                 0600000000000000000000514+0000008+MECHAN       000000133900000064250200912
2600000046304   USAR19900870   THANK YOU (ALBUM VERSION)               WILLIAM HODGE                                               Ringback Tone                 0600000000000000000000257+0000004+MECHAN       000000133900000064250201001
2600000046304   USAR19900870   THANK YOU (ALBUM VERSION)               WILLIAM HODGE                                               Ringback Tone                 0600000000000000000000193+0000003+MECHAN       000000133900000064330201002
2600000046304   USAR19900870   THANK YOU (ALBUM VERSION)               WILLIAM HODGE                                               Ringback Tone                 0600000000000000000000322+0000005+MECHAN       000000133900000064400201003
2600000046304   USAR19900870   THANK YOU (ALBUM VERSION)               WILLIAM HODGE                                               Ringback Tone                 0600000000000000000000021+0000001+MECHAN       000000044600000021000201004
2600000046304   USAR19900870   THANK YOU (ALBUM VERSION)               WILLIAM HODGE                                               Ringback Tone                 0600000000000000000000386+0000006+MECHAN       000000133900000064330201004
2600000046304   USAR19900870   THANK YOU (ALBUM VERSION)               WILLIAM HODGE                                               Ringtone - Master             0600000000000000000000129+0000001+MECHAN       000000267900000129000200910
2600000046304   USAR19900870   THANK YOU (ALBUM VERSION)               WILLIAM HODGE                                               Audio Track                   0600000000000000000000214+0000001+MECHAN       000000446400000214000200903
2600000046304   USAR19900870   THANK YOU (ALBUM VERSION)               WILLIAM HODGE                                               Audio Track                   0600000000000000000001286+0000006+MECHAN       000000446400000214330200904
9995002130194   USSM10705880   THE GIRL IS MINE 2008 WITH WILL.I.AM (THMICHAEL J. JACKSON MICHAEL J. JACKSON                       Ringback Tone                 0750000000000000000000121+0000009+MECHAN       000000022300000013440200910
9995002130194   USSM10705880   THE GIRL IS MINE 2008 WITH WILL.I.AM (THMICHAEL J. JACKSON MICHAEL J. JACKSON                       Ringback Tone                 0750000000000000000000080+0000003+MECHAN       000000044600000026670200910
9995002130194   USSM10705880   THE GIRL IS MINE 2008 WITH WILL.I.AM (THMICHAEL J. JACKSON MICHAEL J. JACKSON                       Ringback Tone                 0750000000000000000000788+0000021+MECHAN       000000062500000037520200910
9995002130194   USSM10705880   THE GIRL IS MINE 2008 WITH WILL.I.AM (THMICHAEL J. JACKSON MICHAEL J. JACKSON                       Ringback Tone                 0750000000000000000004902+0000061+MECHAN       000000133900000080360200910
9995002130194   USSM10705880   THE GIRL IS MINE 2008 WITH WILL.I.AM (THMICHAEL J. JACKSON MICHAEL J. JACKSON                       Ringback Tone                 0750000000000000000000094+0000007+MECHAN       000000022300000013430200911
9995002130194   USSM10705880   THE GIRL IS MINE 2008 WITH WILL.I.AM (THMICHAEL J. JACKSON MICHAEL J. JACKSON                       Ringback Tone                 0750000000000000000000215+0000008+MECHAN       000000044600000026880200911
9995002130194   USSM10705880   THE GIRL IS MINE 2008 WITH WILL.I.AM (THMICHAEL J. JACKSON MICHAEL J. JACKSON                       Ringback Tone                 0750000000000000000002026+0000054+MECHAN       000000062500000037520200911
9995002130194   USSM10705880   THE GIRL IS MINE 2008 WITH WILL.I.AM (THMICHAEL J. JACKSON MICHAEL J. JACKSON                       Ringback Tone                 0750000000000000000004661+0000058+MECHAN       000000133900000080360200911
9995002130194   USSM10705880   THE GIRL IS MINE 2008 WITH WILL.I.AM (THMICHAEL J. JACKSON MICHAEL J. JACKSON                       Ringback Tone                 0750000000000000000000322+0000002+MECHAN       000000267900000161000200911
9995002130194   USSM10705880   THE GIRL IS MINE 2008 WITH WILL.I.AM (THMICHAEL J. JACKSON MICHAEL J. JACKSON                       Ringback Tone                 0750000000000000000000040+0000003+MECHAN       000000022300000013330200912
9995002130194   USSM10705880   THE GIRL IS MINE 2008 WITH WILL.I.AM (THMICHAEL J. JACKSON MICHAEL J. JACKSON                       Ringback Tone                 0750000000000000000000081+0000003+MECHAN       000000044600000027000200912
9995002130194   USSM10705880   THE GIRL IS MINE 2008 WITH WILL.I.AM (THMICHAEL J. JACKSON MICHAEL J. JACKSON                       Ringback Tone                 0750000000000000000001126+0000030+MECHAN       000000062500000037530200912
9995002130194   USSM10705880   THE GIRL IS MINE 2008 WITH WILL.I.AM (THMICHAEL J. JACKSON MICHAEL J. JACKSON                       Ringback Tone                 0750000000000000000000161+0000001+MECHAN       000000267900000161000200912
9995002130194   USSM10705880   THE GIRL IS MINE 2008 WITH WILL.I.AM (THMICHAEL J. JACKSON MICHAEL J. JACKSON                       Ringback Tone                 0750000000000000000000638+0000017+MECHAN       000000062500000037530201001
9995002130194   USSM10705880   THE GIRL IS MINE 2008 WITH WILL.I.AM (THMICHAEL J. JACKSON MICHAEL J. JACKSON                       Ringback Tone                 0750000000000000000000161+0000001+MECHAN       000000267900000161000201001
9995002130194   USSM10705880   THE GIRL IS MINE 2008 WITH WILL.I.AM (THMICHAEL J. JACKSON MICHAEL J. JACKSON                       Ringback Tone                 0750000000000000000000488+0000013+MECHAN       000000062500000037540201002
9995002130194   USSM10705880   THE GIRL IS MINE 2008 WITH WILL.I.AM (THMICHAEL J. JACKSON MICHAEL J. JACKSON                       Ringback Tone                 0750000000000000000000161+0000001+MECHAN       000000267900000161000201002
9995002130194   USSM10705880   THE GIRL IS MINE 2008 WITH WILL.I.AM (THMICHAEL J. JACKSON MICHAEL J. JACKSON                       Ringback Tone                 0750000000000000000000161+0000001+MECHAN       000000267900000161000201003
9995002130194   USSM10705880   THE GIRL IS MINE 2008 WITH WILL.I.AM (THMICHAEL J. JACKSON MICHAEL J. JACKSON                       Ringback Tone                 0750000000000000000000161+0000001+MECHAN       000000267900000161000201004
9995002130194   USSM10705880   THE GIRL IS MINE 2008 WITH WILL.I.AM (THMICHAEL J. JACKSON MICHAEL J. JACKSON                       Audio Track                   0750000000000000000017946+0000067+MECHAN       000000446400000267850200906
9995002130194   USSM10705880   THE GIRL IS MINE 2008 WITH WILL.I.AM (THMICHAEL J. JACKSON MICHAEL J. JACKSON                       Audio Track                   0750000000000000000013928+0000052+MECHAN       000000446400000267850200907
9995002130194   USSM10705880   THE GIRL IS MINE 2008 WITH WILL.I.AM (THMICHAEL J. JACKSON MICHAEL J. JACKSON                       Audio Track                   0750000000000000000002946+0000011+MECHAN       000000446400000267820200908
9995002131904   USSM10705929   WANNA BE STARTIN' SOMETHIN' 2008 WITH AKALIAUNE THIAM ALIAUNE THIAM GIORGIO TUINFORT GIORGIO TUINFORRingback Tone                 0750000000000000000000295+0000022+MECHAN       000000022300000013410200910
9995002131904   USSM10705929   WANNA BE STARTIN' SOMETHIN' 2008 WITH AKALIAUNE THIAM ALIAUNE THIAM GIORGIO TUINFORT GIORGIO TUINFORRingback Tone                 0750000000000000000000134+0000005+MECHAN       000000044600000026800200910
9995002131904   USSM10705929   WANNA BE STARTIN' SOMETHIN' 2008 WITH AKALIAUNE THIAM ALIAUNE THIAM GIORGIO TUINFORT GIORGIO TUINFORRingback Tone                 0750000000000000000000600+0000016+MECHAN       000000062500000037500200910
9995002131904   USSM10705929   WANNA BE STARTIN' SOMETHIN' 2008 WITH AKALIAUNE THIAM ALIAUNE THIAM GIORGIO TUINFORT GIORGIO TUINFORRingback Tone                 0750000000000000000005866+0000073+MECHAN       000000133900000080360200910
9995002131904   USSM10705929   WANNA BE STARTIN' SOMETHIN' 2008 WITH AKALIAUNE THIAM ALIAUNE THIAM GIORGIO TUINFORT GIORGIO TUINFORRingback Tone                 0750000000000000000000174+0000013+MECHAN       000000022300000013380200911
9995002131904   USSM10705929   WANNA BE STARTIN' SOMETHIN' 2008 WITH AKALIAUNE THIAM ALIAUNE THIAM GIORGIO TUINFORT GIORGIO TUINFORRingback Tone                 0750000000000000000000161+0000006+MECHAN       000000044600000026830200911
9995002131904   USSM10705929   WANNA BE STARTIN' SOMETHIN' 2008 WITH AKALIAUNE THIAM ALIAUNE THIAM GIORGIO TUINFORT GIORGIO TUINFORRingback Tone                 0750000000000000000000638+0000017+MECHAN       000000062500000037530200911
9995002131904   USSM10705929   WANNA BE STARTIN' SOMETHIN' 2008 WITH AKALIAUNE THIAM ALIAUNE THIAM GIORGIO TUINFORT GIORGIO TUINFORRingback Tone                 0750000000000000000004902+0000061+MECHAN       000000133900000080360200911
9995002131904   USSM10705929   WANNA BE STARTIN' SOMETHIN' 2008 WITH AKALIAUNE THIAM ALIAUNE THIAM GIORGIO TUINFORT GIORGIO TUINFORRingback Tone                 0750000000000000000016071+0000100+MECHAN       000000267900000160710200911
9995002131904   USSM10705929   WANNA BE STARTIN' SOMETHIN' 2008 WITH AKALIAUNE THIAM ALIAUNE THIAM GIORGIO TUINFORT GIORGIO TUINFORRingback Tone                 0750000000000000000000174+0000013+MECHAN       000000022300000013380200912
9995002131904   USSM10705929   WANNA BE STARTIN' SOMETHIN' 2008 WITH AKALIAUNE THIAM ALIAUNE THIAM GIORGIO TUINFORT GIORGIO TUINFORRingback Tone                 0750000000000000000000214+0000008+MECHAN       000000044600000026750200912
9995002131904   USSM10705929   WANNA BE STARTIN' SOMETHIN' 2008 WITH AKALIAUNE THIAM ALIAUNE THIAM GIORGIO TUINFORT GIORGIO TUINFORRingback Tone                 0750000000000000000000600+0000016+MECHAN       000000062500000037500200912
9995002131904   USSM10705929   WANNA BE STARTIN' SOMETHIN' 2008 WITH AKALIAUNE THIAM ALIAUNE THIAM GIORGIO TUINFORT GIORGIO TUINFORRingback Tone                 0750000000000000000000563+0000007+MECHAN       000000133900000080430200912
9995002131904   USSM10705929   WANNA BE STARTIN' SOMETHIN' 2008 WITH AKALIAUNE THIAM ALIAUNE THIAM GIORGIO TUINFORT GIORGIO TUINFORRingback Tone                 0750000000000000000044357+0000276+MECHAN       000000267900000160710200912
9995002131904   USSM10705929   WANNA BE STARTIN' SOMETHIN' 2008 WITH AKALIAUNE THIAM ALIAUNE THIAM GIORGIO TUINFORT GIORGIO TUINFORRingback Tone                 0750000000000000000000723+0000009+MECHAN       000000133900000080330201001
9995002131904   USSM10705929   WANNA BE STARTIN' SOMETHIN' 2008 WITH AKALIAUNE THIAM ALIAUNE THIAM GIORGIO TUINFORT GIORGIO TUINFORRingback Tone                 0750000000000000000043393+0000270+MECHAN       000000267900000160710201001
9995002131904   USSM10705929   WANNA BE STARTIN' SOMETHIN' 2008 WITH AKALIAUNE THIAM ALIAUNE THIAM GIORGIO TUINFORT GIORGIO TUINFORRingback Tone                 0750000000000000000000013+0000001+MECHAN       000000022300000013000201002
9995002131904   USSM10705929   WANNA BE STARTIN' SOMETHIN' 2008 WITH AKALIAUNE THIAM ALIAUNE THIAM GIORGIO TUINFORT GIORGIO TUINFORRingback Tone                 0750000000000000000000263+0000007+MECHAN       000000062500000037570201002
9995002131904   USSM10705929   WANNA BE STARTIN' SOMETHIN' 2008 WITH AKALIAUNE THIAM ALIAUNE THIAM GIORGIO TUINFORT GIORGIO TUINFORRingback Tone                 0750000000000000000000482+0000006+MECHAN       000000133900000080330201002
9995002131904   USSM10705929   WANNA BE STARTIN' SOMETHIN' 2008 WITH AKALIAUNE THIAM ALIAUNE THIAM GIORGIO TUINFORT GIORGIO TUINFORRingback Tone                 0750000000000000000040982+0000255+MECHAN       000000267900000160710201002
9995002131904   USSM10705929   WANNA BE STARTIN' SOMETHIN' 2008 WITH AKALIAUNE THIAM ALIAUNE THIAM GIORGIO TUINFORT GIORGIO TUINFORRingback Tone                 0750000000000000000000482+0000006+MECHAN       000000133900000080330201003
9995002131904   USSM10705929   WANNA BE STARTIN' SOMETHIN' 2008 WITH AKALIAUNE THIAM ALIAUNE THIAM GIORGIO TUINFORT GIORGIO TUINFORRingback Tone                 0750000000000000000041464+0000258+MECHAN       000000267900000160710201003
9995002131904   USSM10705929   WANNA BE STARTIN' SOMETHIN' 2008 WITH AKALIAUNE THIAM ALIAUNE THIAM GIORGIO TUINFORT GIORGIO TUINFORRingback Tone                 0750000000000000000000482+0000006+MECHAN       000000133900000080330201004
9995002131904   USSM10705929   WANNA BE STARTIN' SOMETHIN' 2008 WITH AKALIAUNE THIAM ALIAUNE THIAM GIORGIO TUINFORT GIORGIO TUINFORRingback Tone                 0750000000000000000039696+0000247+MECHAN       000000267900000160710201004
9995002131904   USSM10705929   WANNA BE STARTIN' SOMETHIN' 2008 WITH AKALIAUNE THIAM ALIAUNE THIAM GIORGIO TUINFORT GIORGIO TUINFORAudio Track                   0750000000000000000015000+0000056+MECHAN       000000446400000267860200810
9995002131904   USSM10705929   WANNA BE STARTIN' SOMETHIN' 2008 WITH AKALIAUNE THIAM ALIAUNE THIAM GIORGIO TUINFORT GIORGIO TUINFORAudio Track                   0750000000000000000016071+0000060+MECHAN       000000446400000267850200811
9995002131904   USSM10705929   WANNA BE STARTIN' SOMETHIN' 2008 WITH AKALIAUNE THIAM ALIAUNE THIAM GIORGIO TUINFORT GIORGIO TUINFORAudio Track                   0750000000000000000015804+0000059+MECHAN       000000446400000267860200812
9995002131904   USSM10705929   WANNA BE STARTIN' SOMETHIN' 2008 WITH AKALIAUNE THIAM ALIAUNE THIAM GIORGIO TUINFORT GIORGIO TUINFORAudio Track                   0750000000000000000001339+0000005+MECHAN       000000446400000267800200901
9995002131904   USSM10705929   WANNA BE STARTIN' SOMETHIN' 2008 WITH AKALIAUNE THIAM ALIAUNE THIAM GIORGIO TUINFORT GIORGIO TUINFORAudio Track                   0750000000000000000000804+0000003+MECHAN       000000446400000268000200902
9995002131904   USSM10705929   WANNA BE STARTIN' SOMETHIN' 2008 WITH AKALIAUNE THIAM ALIAUNE THIAM GIORGIO TUINFORT GIORGIO TUINFORAudio Track                   0750000000000000000004821+0000018+MECHAN       000000446400000267830200906
9995002131904   USSM10705929   WANNA BE STARTIN' SOMETHIN' 2008 WITH AKALIAUNE THIAM ALIAUNE THIAM GIORGIO TUINFORT GIORGIO TUINFORAudio Track                   0750000000000000000004018+0000015+MECHAN       000000446400000267870200907
9995002131904   USSM10705929   WANNA BE STARTIN' SOMETHIN' 2008 WITH AKALIAUNE THIAM ALIAUNE THIAM GIORGIO TUINFORT GIORGIO TUINFORAudio Track                   0750000000000000000004286+0000016+MECHAN       000000446400000267880200908
Sony Music Entertainment PhiliWARNER/CHAPPELL MUSIC PHILIPPI201007201012PHP DOLLAR
9995002171174   GBCTA0900006   I DO NOT HOOK UP                        GREG WELLS GREG WELLS KARA DIOGUARDI KARA DIOGUARDI KATY PERRingback Tone                 0333400000000000000000024+0000002+MECHAN       000000044600000012000201003
9995002171174   GBCTA0900006   I DO NOT HOOK UP                        GREG WELLS GREG WELLS KARA DIOGUARDI KARA DIOGUARDI KATY PERRingback Tone                 0333400000000000000000048+0000004+MECHAN       000000044600000012000201003
9995002171174   GBCTA0900006   I DO NOT HOOK UP                        GREG WELLS GREG WELLS KARA DIOGUARDI KARA DIOGUARDI KATY PERRingback Tone                 0333400000000000000000117+0000007+MECHAN       000000062500000016710201003
9995002171174   GBCTA0900006   I DO NOT HOOK UP                        GREG WELLS GREG WELLS KARA DIOGUARDI KARA DIOGUARDI KATY PERRingback Tone                 0333400000000000000000107+0000003+MECHAN       000000133900000035670201003
9995002171174   GBCTA0900006   I DO NOT HOOK UP                        GREG WELLS GREG WELLS KARA DIOGUARDI KARA DIOGUARDI KATY PERRingback Tone                 0333400000000000000000036+0000003+MECHAN       000000044600000012000201004
9995002171174   GBCTA0900006   I DO NOT HOOK UP                        GREG WELLS GREG WELLS KARA DIOGUARDI KARA DIOGUARDI KATY PERRingback Tone                 0333400000000000000001500+0000021+MECHAN       000000267900000071430201004
9995002171174   GBCTA0900006   I DO NOT HOOK UP                        GREG WELLS GREG WELLS KARA DIOGUARDI KARA DIOGUARDI KATY PERRingback Tone                 0333400000000000000000417+0000070+MECHAN       000000022300000005960201005
9995002171174   GBCTA0900006   I DO NOT HOOK UP                        GREG WELLS GREG WELLS KARA DIOGUARDI KARA DIOGUARDI KATY PERRingback Tone                 0333400000000000000000381+0000032+MECHAN       000000044600000011910201005
9995002171174   GBCTA0900006   I DO NOT HOOK UP                        GREG WELLS GREG WELLS KARA DIOGUARDI KARA DIOGUARDI KATY PERRingback Tone                 0333400000000000000002017+0000121+MECHAN       000000062500000016670201005
9995002171174   GBCTA0900006   I DO NOT HOOK UP                        GREG WELLS GREG WELLS KARA DIOGUARDI KARA DIOGUARDI KATY PERRingback Tone                 0333400000000000000007466+0000209+MECHAN       000000133900000035720201005
9995002171174   GBCTA0900006   I DO NOT HOOK UP                        GREG WELLS GREG WELLS KARA DIOGUARDI KARA DIOGUARDI KATY PERRingback Tone                 0333400000000000000002143+0000030+MECHAN       000000267900000071430201005
9995002171174   GBCTA0900006   I DO NOT HOOK UP                        GREG WELLS GREG WELLS KARA DIOGUARDI KARA DIOGUARDI KATY PERRingback Tone                 0333400000000000000000214+0000036+MECHAN       000000022300000005940201006
9995002171174   GBCTA0900006   I DO NOT HOOK UP                        GREG WELLS GREG WELLS KARA DIOGUARDI KARA DIOGUARDI KATY PERRingback Tone                 0333400000000000000000310+0000026+MECHAN       000000044600000011920201006
9995002171174   GBCTA0900006   I DO NOT HOOK UP                        GREG WELLS GREG WELLS KARA DIOGUARDI KARA DIOGUARDI KATY PERRingback Tone                 0333400000000000000001400+0000084+MECHAN       000000062500000016670201006
9995002171174   GBCTA0900006   I DO NOT HOOK UP                        GREG WELLS GREG WELLS KARA DIOGUARDI KARA DIOGUARDI KATY PERRingback Tone                 0333400000000000000005001+0000140+MECHAN       000000133900000035720201006
9995002171174   GBCTA0900006   I DO NOT HOOK UP                        GREG WELLS GREG WELLS KARA DIOGUARDI KARA DIOGUARDI KATY PERRingback Tone                 0333400000000000000002072+0000029+MECHAN       000000267900000071450201006
9995002171174   GBCTA0900006   I DO NOT HOOK UP                        GREG WELLS GREG WELLS KARA DIOGUARDI KARA DIOGUARDI KATY PERRingback Tone                 0333400000000000000000161+0000027+MECHAN       000000022300000005960201007
9995002171174   GBCTA0900006   I DO NOT HOOK UP                        GREG WELLS GREG WELLS KARA DIOGUARDI KARA DIOGUARDI KATY PERRingback Tone                 0333400000000000000000226+0000019+MECHAN       000000044600000011890201007
9995002171174   GBCTA0900006   I DO NOT HOOK UP                        GREG WELLS GREG WELLS KARA DIOGUARDI KARA DIOGUARDI KATY PERRingback Tone                 0333400000000000000000984+0000059+MECHAN       000000062500000016680201007
9995002171174   GBCTA0900006   I DO NOT HOOK UP                        GREG WELLS GREG WELLS KARA DIOGUARDI KARA DIOGUARDI KATY PERRingback Tone                 0333400000000000000004822+0000135+MECHAN       000000133900000035720201007
9995002171174   GBCTA0900006   I DO NOT HOOK UP                        GREG WELLS GREG WELLS KARA DIOGUARDI KARA DIOGUARDI KATY PERRingback Tone                 0333400000000000000000929+0000013+MECHAN       000000267900000071460201007
9995002171174   GBCTA0900006   I DO NOT HOOK UP                        GREG WELLS GREG WELLS KARA DIOGUARDI KARA DIOGUARDI KATY PERRingback Tone                 0333400000000000000000167+0000028+MECHAN       000000022300000005960201008
9995002171174   GBCTA0900006   I DO NOT HOOK UP                        GREG WELLS GREG WELLS KARA DIOGUARDI KARA DIOGUARDI KATY PERRingback Tone                 0333400000000000000000143+0000012+MECHAN       000000044600000011920201008
9995002171174   GBCTA0900006   I DO NOT HOOK UP                        GREG WELLS GREG WELLS KARA DIOGUARDI KARA DIOGUARDI KATY PERRingback Tone                 0333400000000000000000800+0000048+MECHAN       000000062500000016670201008
9995002171174   GBCTA0900006   I DO NOT HOOK UP                        GREG WELLS GREG WELLS KARA DIOGUARDI KARA DIOGUARDI KATY PERRingback Tone                 0333400000000000000003786+0000106+MECHAN       000000133900000035720201008
9995002171174   GBCTA0900006   I DO NOT HOOK UP                        GREG WELLS GREG WELLS KARA DIOGUARDI KARA DIOGUARDI KATY PERRingback Tone                 0333400000000000000000095+0000016+MECHAN       000000022300000005940201009
9995002171174   GBCTA0900006   I DO NOT HOOK UP                        GREG WELLS GREG WELLS KARA DIOGUARDI KARA DIOGUARDI KATY PERRingback Tone                 0333400000000000000000143+0000012+MECHAN       000000044600000011920201009
9995002171174   GBCTA0900006   I DO NOT HOOK UP                        GREG WELLS GREG WELLS KARA DIOGUARDI KARA DIOGUARDI KATY PERRingback Tone                 0333400000000000000000550+0000033+MECHAN       000000062500000016670201009
9995002171174   GBCTA0900006   I DO NOT HOOK UP                        GREG WELLS GREG WELLS KARA DIOGUARDI KARA DIOGUARDI KATY PERRingback Tone                 0333400000000000000003108+0000087+MECHAN       000000133900000035720201009
9995002171174   GBCTA0900006   I DO NOT HOOK UP                        GREG WELLS GREG WELLS KARA DIOGUARDI KARA DIOGUARDI KATY PERRingback Tone                 0333400000000000000000089+0000015+MECHAN       000000022300000005930201010
9995002171174   GBCTA0900006   I DO NOT HOOK UP                        GREG WELLS GREG WELLS KARA DIOGUARDI KARA DIOGUARDI KATY PERRingback Tone                 0333400000000000000000131+0000011+MECHAN       000000044600000011910201010
9995002171174   GBCTA0900006   I DO NOT HOOK UP                        GREG WELLS GREG WELLS KARA DIOGUARDI KARA DIOGUARDI KATY PERRingback Tone                 0333400000000000000000466+0000028+MECHAN       000000062500000016640201010
9995002171174   GBCTA0900006   I DO NOT HOOK UP                        GREG WELLS GREG WELLS KARA DIOGUARDI KARA DIOGUARDI KATY PERRingback Tone                 0333400000000000000003036+0000085+MECHAN       000000133900000035720201010
9995002131903   USSM10705928   P.Y.T. (PRETTY YOUNG THING) 2008 WITH WIMICHAEL JACKSON MICHAEL JACKSON                             Ringback Tone                 0500000000000000000000125+0000005+MECHAN       000000062500000025000201003
9995002205704   USJI10900398   SUPAMAN HIGH                            OTIS WILLIAMS R. KELLY RADRIC DAVIS WILLIAM HODGE           Ringback Tone                 0150000000000000000000008+0000001+MECHAN       000000062500000008000201005
9995002205704   USJI10900398   SUPAMAN HIGH                            OTIS WILLIAMS R. KELLY RADRIC DAVIS WILLIAM HODGE           Ringback Tone                 0150000000000000000000048+0000003+MECHAN       000000133900000016000201005
9995002205704   USJI10900398   SUPAMAN HIGH                            OTIS WILLIAMS R. KELLY RADRIC DAVIS WILLIAM HODGE           Ringback Tone                 0150000000000000000000003+0000001+MECHAN       000000022300000003000201006
9995002205704   USJI10900398   SUPAMAN HIGH                            OTIS WILLIAMS R. KELLY RADRIC DAVIS WILLIAM HODGE           Ringback Tone                 0150000000000000000000023+0000003+MECHAN       000000062500000007670201006
9995002205704   USJI10900398   SUPAMAN HIGH                            OTIS WILLIAMS R. KELLY RADRIC DAVIS WILLIAM HODGE           Ringback Tone                 0150000000000000000000003+0000001+MECHAN       000000022300000003000201007
9995002205704   USJI10900398   SUPAMAN HIGH                            OTIS WILLIAMS R. KELLY RADRIC DAVIS WILLIAM HODGE           Ringback Tone                 0150000000000000000000005+0000001+MECHAN       000000044600000005000201007
9995002205704   USJI10900398   SUPAMAN HIGH                            OTIS WILLIAMS R. KELLY RADRIC DAVIS WILLIAM HODGE           Ringback Tone                 0150000000000000000000015+0000002+MECHAN       000000062500000007500201007
9995002205704   USJI10900398   SUPAMAN HIGH                            OTIS WILLIAMS R. KELLY RADRIC DAVIS WILLIAM HODGE           Ringback Tone                 0150000000000000000000003+0000001+MECHAN       000000022300000003000201008
9995002205704   USJI10900398   SUPAMAN HIGH                            OTIS WILLIAMS R. KELLY RADRIC DAVIS WILLIAM HODGE           Ringback Tone                 0150000000000000000000015+0000002+MECHAN       000000062500000007500201008
2600000046304   USAR19900870   THANK YOU (ALBUM VERSION)               WILLIAM HODGE                                               Ringback Tone                 0600000000000000000000193+0000003+MECHAN       000000133900000064330201005
2600000046304   USAR19900870   THANK YOU (ALBUM VERSION)               WILLIAM HODGE                                               Ringback Tone                 0600000000000000000000257+0000002+MECHAN       000000267900000128500201005
2600000046304   USAR19900870   THANK YOU (ALBUM VERSION)               WILLIAM HODGE                                               Ringback Tone                 0600000000000000000000129+0000001+MECHAN       000000267900000129000201006
2600000046304   USAR19900870   THANK YOU (ALBUM VERSION)               WILLIAM HODGE                                               Ringback Tone                 0600000000000000000000064+0000001+MECHAN       000000133900000064000201008
2600000046304   USAR19900870   THANK YOU (ALBUM VERSION)               WILLIAM HODGE                                               Ringback Tone                 0600000000000000000000011+0000001+MECHAN       000000022300000011000201009
2600000046304   USAR19900870   THANK YOU (ALBUM VERSION)               WILLIAM HODGE                                               Ringback Tone                 0600000000000000000000060+0000002+MECHAN       000000062500000030000201009
9995002130194   USSM10705880   THE GIRL IS MINE 2008 WITH WILL.I.AM (THMICHAEL J. JACKSON MICHAEL J. JACKSON                       Ringback Tone                 0750000000000000000000638+0000017+MECHAN       000000062500000037530201003
9995002130194   USSM10705880   THE GIRL IS MINE 2008 WITH WILL.I.AM (THMICHAEL J. JACKSON MICHAEL J. JACKSON                       Ringback Tone                 0750000000000000000000161+0000001+MECHAN       000000267900000161000201005
9995002130194   USSM10705880   THE GIRL IS MINE 2008 WITH WILL.I.AM (THMICHAEL J. JACKSON MICHAEL J. JACKSON                       Ringback Tone                 0750000000000000000000321+0000002+MECHAN       000000267900000160500201006
9995002131904   USSM10705929   WANNA BE STARTIN' SOMETHIN' 2008 WITH AKALIAUNE THIAM ALIAUNE THIAM GIORGIO TUINFORT GIORGIO TUINFORRingback Tone                 0750000000000000000000080+0000001+MECHAN       000000133900000080000201003
9995002131904   USSM10705929   WANNA BE STARTIN' SOMETHIN' 2008 WITH AKALIAUNE THIAM ALIAUNE THIAM GIORGIO TUINFORT GIORGIO TUINFORRingback Tone                 0750000000000000000000563+0000007+MECHAN       000000133900000080430201005
9995002131904   USSM10705929   WANNA BE STARTIN' SOMETHIN' 2008 WITH AKALIAUNE THIAM ALIAUNE THIAM GIORGIO TUINFORT GIORGIO TUINFORRingback Tone                 0750000000000000000040018+0000249+MECHAN       000000267900000160710201005
Sony Music Entertainment PhiliWARNER/CHAPPELL MUSIC PHILIPPI201101201106PHP DOLLAR
9995002171174   GBCTA0900006   I DO NOT HOOK UP                        GREG WELLS GREG WELLS KARA DIOGUARDI KARA DIOGUARDI KATY PERRingback Tone                 0333400000000000000000012+0000001+MECHAN       000000044600000012000201006
9995002171174   GBCTA0900006   I DO NOT HOOK UP                        GREG WELLS GREG WELLS KARA DIOGUARDI KARA DIOGUARDI KATY PERRingback Tone                 0333400000000000000000250+0000007+MECHAN       000000133900000035710201006
9995002171174   GBCTA0900006   I DO NOT HOOK UP                        GREG WELLS GREG WELLS KARA DIOGUARDI KARA DIOGUARDI KATY PERRingback Tone                 0333400000000000000000500+0000007+MECHAN       000000267900000071430201006
9995002171174   GBCTA0900006   I DO NOT HOOK UP                        GREG WELLS GREG WELLS KARA DIOGUARDI KARA DIOGUARDI KATY PERRingback Tone                 0333400000000000000000214+0000006+MECHAN       000000133900000035670201007
9995002171174   GBCTA0900006   I DO NOT HOOK UP                        GREG WELLS GREG WELLS KARA DIOGUARDI KARA DIOGUARDI KATY PERRingback Tone                 0333400000000000000000643+0000009+MECHAN       000000267900000071440201007
9995002171174   GBCTA0900006   I DO NOT HOOK UP                        GREG WELLS GREG WELLS KARA DIOGUARDI KARA DIOGUARDI KATY PERRingback Tone                 0333400000000000000000143+0000004+MECHAN       000000133900000035750201008
9995002171174   GBCTA0900006   I DO NOT HOOK UP                        GREG WELLS GREG WELLS KARA DIOGUARDI KARA DIOGUARDI KATY PERRingback Tone                 0333400000000000000000500+0000007+MECHAN       000000267900000071430201008
9995002171174   GBCTA0900006   I DO NOT HOOK UP                        GREG WELLS GREG WELLS KARA DIOGUARDI KARA DIOGUARDI KATY PERRingback Tone                 0333400000000000000000143+0000004+MECHAN       000000133900000035750201009
9995002171174   GBCTA0900006   I DO NOT HOOK UP                        GREG WELLS GREG WELLS KARA DIOGUARDI KARA DIOGUARDI KATY PERRingback Tone                 0333400000000000000000500+0000007+MECHAN       000000267900000071430201009
9995002171174   GBCTA0900006   I DO NOT HOOK UP                        GREG WELLS GREG WELLS KARA DIOGUARDI KARA DIOGUARDI KATY PERRingback Tone                 0333400000000000000000143+0000004+MECHAN       000000133900000035750201010
9995002171174   GBCTA0900006   I DO NOT HOOK UP                        GREG WELLS GREG WELLS KARA DIOGUARDI KARA DIOGUARDI KATY PERRingback Tone                 0333400000000000000000429+0000006+MECHAN       000000267900000071500201010
9995002171174   GBCTA0900006   I DO NOT HOOK UP                        GREG WELLS GREG WELLS KARA DIOGUARDI KARA DIOGUARDI KATY PERRingback Tone                 0333400000000000000000042+0000007+MECHAN       000000022300000006000201011
9995002171174   GBCTA0900006   I DO NOT HOOK UP                        GREG WELLS GREG WELLS KARA DIOGUARDI KARA DIOGUARDI KATY PERRingback Tone                 0333400000000000000000071+0000006+MECHAN       000000044600000011830201011
9995002171174   GBCTA0900006   I DO NOT HOOK UP                        GREG WELLS GREG WELLS KARA DIOGUARDI KARA DIOGUARDI KATY PERRingback Tone                 0333400000000000000000400+0000024+MECHAN       000000062500000016670201011
9995002171174   GBCTA0900006   I DO NOT HOOK UP                        GREG WELLS GREG WELLS KARA DIOGUARDI KARA DIOGUARDI KATY PERRingback Tone                 0333400000000000000002751+0000077+MECHAN       000000133900000035730201011
9995002171174   GBCTA0900006   I DO NOT HOOK UP                        GREG WELLS GREG WELLS KARA DIOGUARDI KARA DIOGUARDI KATY PERRingback Tone                 0333400000000000000000429+0000006+MECHAN       000000267900000071500201011
9995002171174   GBCTA0900006   I DO NOT HOOK UP                        GREG WELLS GREG WELLS KARA DIOGUARDI KARA DIOGUARDI KATY PERRingback Tone                 0333400000000000000000048+0000008+MECHAN       000000022300000006000201012
9995002171174   GBCTA0900006   I DO NOT HOOK UP                        GREG WELLS GREG WELLS KARA DIOGUARDI KARA DIOGUARDI KATY PERRingback Tone                 0333400000000000000000155+0000013+MECHAN       000000044600000011920201012
9995002171174   GBCTA0900006   I DO NOT HOOK UP                        GREG WELLS GREG WELLS KARA DIOGUARDI KARA DIOGUARDI KATY PERRingback Tone                 0333400000000000000000483+0000029+MECHAN       000000062500000016660201012
9995002171174   GBCTA0900006   I DO NOT HOOK UP                        GREG WELLS GREG WELLS KARA DIOGUARDI KARA DIOGUARDI KATY PERRingback Tone                 0333400000000000000002572+0000072+MECHAN       000000133900000035720201012
9995002171174   GBCTA0900006   I DO NOT HOOK UP                        GREG WELLS GREG WELLS KARA DIOGUARDI KARA DIOGUARDI KATY PERRingback Tone                 0333400000000000000000429+0000006+MECHAN       000000267900000071500201012
9995002171174   GBCTA0900006   I DO NOT HOOK UP                        GREG WELLS GREG WELLS KARA DIOGUARDI KARA DIOGUARDI KATY PERRingback Tone                 0333400000000000000000065+0000011+MECHAN       000000022300000005910201101
9995002171174   GBCTA0900006   I DO NOT HOOK UP                        GREG WELLS GREG WELLS KARA DIOGUARDI KARA DIOGUARDI KATY PERRingback Tone                 0333400000000000000000060+0000005+MECHAN       000000044600000012000201101
9995002171174   GBCTA0900006   I DO NOT HOOK UP                        GREG WELLS GREG WELLS KARA DIOGUARDI KARA DIOGUARDI KATY PERRingback Tone                 0333400000000000000000300+0000018+MECHAN       000000062500000016670201101
9995002171174   GBCTA0900006   I DO NOT HOOK UP                        GREG WELLS GREG WELLS KARA DIOGUARDI KARA DIOGUARDI KATY PERRingback Tone                 0333400000000000000002644+0000074+MECHAN       000000133900000035730201101
9995002171174   GBCTA0900006   I DO NOT HOOK UP                        GREG WELLS GREG WELLS KARA DIOGUARDI KARA DIOGUARDI KATY PERRingback Tone                 0333400000000000000000286+0000004+MECHAN       000000267900000071500201101
9995002171174   GBCTA0900006   I DO NOT HOOK UP                        GREG WELLS GREG WELLS KARA DIOGUARDI KARA DIOGUARDI KATY PERRingback Tone                 0333400000000000000000012+0000002+MECHAN       000000022300000006000201102
9995002171174   GBCTA0900006   I DO NOT HOOK UP                        GREG WELLS GREG WELLS KARA DIOGUARDI KARA DIOGUARDI KATY PERRingback Tone                 0333400000000000000000095+0000008+MECHAN       000000044600000011880201102
9995002171174   GBCTA0900006   I DO NOT HOOK UP                        GREG WELLS GREG WELLS KARA DIOGUARDI KARA DIOGUARDI KATY PERRingback Tone                 0333400000000000000000167+0000010+MECHAN       000000062500000016700201102
9995002171174   GBCTA0900006   I DO NOT HOOK UP                        GREG WELLS GREG WELLS KARA DIOGUARDI KARA DIOGUARDI KATY PERRingback Tone                 0333400000000000000002143+0000060+MECHAN       000000133900000035720201102
9995002171174   GBCTA0900006   I DO NOT HOOK UP                        GREG WELLS GREG WELLS KARA DIOGUARDI KARA DIOGUARDI KATY PERRingback Tone                 0333400000000000000000071+0000002+MECHAN       000000133900000035500201102
9995002171174   GBCTA0900006   I DO NOT HOOK UP                        GREG WELLS GREG WELLS KARA DIOGUARDI KARA DIOGUARDI KATY PERRingback Tone                 0333400000000000000000214+0000003+MECHAN       000000267900000071330201102
9995002171174   GBCTA0900006   I DO NOT HOOK UP                        GREG WELLS GREG WELLS KARA DIOGUARDI KARA DIOGUARDI KATY PERRingback Tone                 0333400000000000000000059+0000010+MECHAN       000000022300000005900201103
9995002171174   GBCTA0900006   I DO NOT HOOK UP                        GREG WELLS GREG WELLS KARA DIOGUARDI KARA DIOGUARDI KATY PERRingback Tone                 0333400000000000000000107+0000009+MECHAN       000000044600000011890201103
9995002171174   GBCTA0900006   I DO NOT HOOK UP                        GREG WELLS GREG WELLS KARA DIOGUARDI KARA DIOGUARDI KATY PERRingback Tone                 0333400000000000000000233+0000014+MECHAN       000000062500000016640201103
9995002171174   GBCTA0900006   I DO NOT HOOK UP                        GREG WELLS GREG WELLS KARA DIOGUARDI KARA DIOGUARDI KATY PERRingback Tone                 0333400000000000000002179+0000061+MECHAN       000000133900000035720201103
9995002171174   GBCTA0900006   I DO NOT HOOK UP                        GREG WELLS GREG WELLS KARA DIOGUARDI KARA DIOGUARDI KATY PERRingback Tone                 0333400000000000000000071+0000002+MECHAN       000000133900000035500201103
9995002171174   GBCTA0900006   I DO NOT HOOK UP                        GREG WELLS GREG WELLS KARA DIOGUARDI KARA DIOGUARDI KATY PERRingback Tone                 0333400000000000000000143+0000002+MECHAN       000000267900000071500201103
9995002171174   GBCTA0900006   I DO NOT HOOK UP                        GREG WELLS GREG WELLS KARA DIOGUARDI KARA DIOGUARDI KATY PERRingback Tone                 0333400000000000000000071+0000002+MECHAN       000000133900000035500201104
9995002171174   GBCTA0900006   I DO NOT HOOK UP                        GREG WELLS GREG WELLS KARA DIOGUARDI KARA DIOGUARDI KATY PERRingback Tone                 0333400000000000000000143+0000002+MECHAN       000000267900000071500201104
9995002171174   GBCTA0900006   I DO NOT HOOK UP                        GREG WELLS GREG WELLS KARA DIOGUARDI KARA DIOGUARDI KATY PERRingtone - Master             0333400000000000000000357+0000005+MECHAN       000000267900000071400201004
9995002171174   GBCTA0900006   I DO NOT HOOK UP                        GREG WELLS GREG WELLS KARA DIOGUARDI KARA DIOGUARDI KATY PERAudio Track                   0333400000000000000002976+0000025+MECHAN       000000446400000119040200909
9995002171174   GBCTA0900006   I DO NOT HOOK UP                        GREG WELLS GREG WELLS KARA DIOGUARDI KARA DIOGUARDI KATY PERAudio Track                   0333400000000000000005001+0000042+MECHAN       000000446400000119070200910
9995002171174   GBCTA0900006   I DO NOT HOOK UP                        GREG WELLS GREG WELLS KARA DIOGUARDI KARA DIOGUARDI KATY PERAudio Track                   0333400000000000000001786+0000015+MECHAN       000000446400000119070200911
9995002171174   GBCTA0900006   I DO NOT HOOK UP                        GREG WELLS GREG WELLS KARA DIOGUARDI KARA DIOGUARDI KATY PERAudio Track                   0333400000000000000000714+0000006+MECHAN       000000446400000119000200912
9995002171174   GBCTA0900006   I DO NOT HOOK UP                        GREG WELLS GREG WELLS KARA DIOGUARDI KARA DIOGUARDI KATY PERAudio Track                   0333400000000000000000834+0000007+MECHAN       000000446400000119140201001
9995002171174   GBCTA0900006   I DO NOT HOOK UP                        GREG WELLS GREG WELLS KARA DIOGUARDI KARA DIOGUARDI KATY PERAudio Track                   0333400000000000000015598+0000131+MECHAN       000000446400000119070201002
9995002171174   GBCTA0900006   I DO NOT HOOK UP                        GREG WELLS GREG WELLS KARA DIOGUARDI KARA DIOGUARDI KATY PERAudio Track                   0333400000000000000003215+0000027+MECHAN       000000446400000119070201003
9995002171174   GBCTA0900006   I DO NOT HOOK UP                        GREG WELLS GREG WELLS KARA DIOGUARDI KARA DIOGUARDI KATY PERAudio Track                   0333400000000000000001548+0000013+MECHAN       000000446400000119080201004
9995002171174   GBCTA0900006   I DO NOT HOOK UP                        GREG WELLS GREG WELLS KARA DIOGUARDI KARA DIOGUARDI KATY PERAudio Track                   0333400000000000000000595+0000005+MECHAN       000000446400000119000201005
9995002171174   GBCTA0900006   I DO NOT HOOK UP                        GREG WELLS GREG WELLS KARA DIOGUARDI KARA DIOGUARDI KATY PERAudio Track                   0333400000000000000000357+0000003+MECHAN       000000446400000119000201006
9995002171174   GBCTA0900006   I DO NOT HOOK UP                        GREG WELLS GREG WELLS KARA DIOGUARDI KARA DIOGUARDI KATY PERAudio Track                   0333400000000000000000238+0000002+MECHAN       000000446400000119000201007
9995002171174   GBCTA0900006   I DO NOT HOOK UP                        GREG WELLS GREG WELLS KARA DIOGUARDI KARA DIOGUARDI KATY PERAudio Track                   0333400000000000000000238+0000002+MECHAN       000000446400000119000201008
9995002171174   GBCTA0900006   I DO NOT HOOK UP                        GREG WELLS GREG WELLS KARA DIOGUARDI KARA DIOGUARDI KATY PERAudio Track                   0333400000000000000000595+0000005+MECHAN       000000446400000119000201009
9995002171174   GBCTA0900006   I DO NOT HOOK UP                        GREG WELLS GREG WELLS KARA DIOGUARDI KARA DIOGUARDI KATY PERAudio Track                   0333400000000000000000595+0000005+MECHAN       000000446400000119000201010
0000000049687   USAR10000022   I HAVE NOTHING (REMASTERED: 2000)       FOSTER D/THOMPSON L/ARR:HOUSTON W                           Ringback Tone                 0375000000000000000000080+0000001+MECHAN       000000267900000080000201006
0000000049687   USAR10000022   I HAVE NOTHING (REMASTERED: 2000)       FOSTER D/THOMPSON L/ARR:HOUSTON W                           Audio Track                   0375000000000000000000134+0000001+MECHAN       000000446400000134000200909
0000000049687   USAR10000022   I HAVE NOTHING (REMASTERED: 2000)       FOSTER D/THOMPSON L/ARR:HOUSTON W                           Audio Track                   0375000000000000000000402+0000003+MECHAN       000000446400000134000200910
0000000049687   USAR10000022   I HAVE NOTHING (REMASTERED: 2000)       FOSTER D/THOMPSON L/ARR:HOUSTON W                           Audio Track                   0375000000000000000000268+0000002+MECHAN       000000446400000134000200911
0000000049687   USAR10000022   I HAVE NOTHING (REMASTERED: 2000)       FOSTER D/THOMPSON L/ARR:HOUSTON W                           Audio Track                   0375000000000000000000134+0000001+MECHAN       000000446400000134000200912
0000000049687   USAR10000022   I HAVE NOTHING (REMASTERED: 2000)       FOSTER D/THOMPSON L/ARR:HOUSTON W                           Audio Track                   0375000000000000000000268+0000002+MECHAN       000000446400000134000201002
0000000049687   USAR10000022   I HAVE NOTHING (REMASTERED: 2000)       FOSTER D/THOMPSON L/ARR:HOUSTON W                           Audio Track                   0375000000000000000000134+0000001+MECHAN       000000446400000134000201005
9995002131903   USSM10705928   P.Y.T. (PRETTY YOUNG THING) 2008 WITH WIMICHAEL JACKSON MICHAEL JACKSON                             Audio Track                   0500000000000000000000179+0000001+MECHAN       000000446400000179000201006
2600000046304   USAR19900870   THANK YOU (ALBUM VERSION)               MICHAEL JACKSON                                             Ringback Tone                 0600000000000000000000021+0000001+MECHAN       000000044600000021000201006
2600000046304   USAR19900870   THANK YOU (ALBUM VERSION)               MICHAEL JACKSON                                             Ringback Tone                 0600000000000000000000193+0000003+MECHAN       000000133900000064330201006
2600000046304   USAR19900870   THANK YOU (ALBUM VERSION)               MICHAEL JACKSON                                             Ringback Tone                 0600000000000000000000129+0000002+MECHAN       000000133900000064500201007
2600000046304   USAR19900870   THANK YOU (ALBUM VERSION)               MICHAEL JACKSON                                             Ringback Tone                 0600000000000000000000129+0000001+MECHAN       000000267900000129000201007
2600000046304   USAR19900870   THANK YOU (ALBUM VERSION)               MICHAEL JACKSON                                             Ringback Tone                 0600000000000000000000129+0000002+MECHAN       000000133900000064500201008
2600000046304   USAR19900870   THANK YOU (ALBUM VERSION)               MICHAEL JACKSON                                             Ringback Tone                 0600000000000000000000129+0000001+MECHAN       000000267900000129000201008
2600000046304   USAR19900870   THANK YOU (ALBUM VERSION)               MICHAEL JACKSON                                             Ringback Tone                 0600000000000000000000129+0000002+MECHAN       000000133900000064500201009
2600000046304   USAR19900870   THANK YOU (ALBUM VERSION)               MICHAEL JACKSON                                             Ringback Tone                 0600000000000000000000021+0000001+MECHAN       000000044600000021000201011
2600000046304   USAR19900870   THANK YOU (ALBUM VERSION)               MICHAEL JACKSON                                             Ringback Tone                 0600000000000000000000064+0000001+MECHAN       000000133900000064000201012
2600000046304   USAR19900870   THANK YOU (ALBUM VERSION)               MICHAEL JACKSON                                             Ringback Tone                 0600000000000000000000129+0000001+MECHAN       000000267900000129000201012
2600000046304   USAR19900870   THANK YOU (ALBUM VERSION)               MICHAEL JACKSON                                             Ringback Tone                 0600000000000000000000193+0000003+MECHAN       000000133900000064330201102
2600000046304   USAR19900870   THANK YOU (ALBUM VERSION)               MICHAEL JACKSON                                             Ringback Tone                 0600000000000000000000060+0000002+MECHAN       000000062500000030000201103
2600000046304   USAR19900870   THANK YOU (ALBUM VERSION)               MICHAEL JACKSON                                             Ringtone - Master             0600000000000000000000643+0000005+MECHAN       000000267900000128600201005
9995002130194   USSM10705880   THE GIRL IS MINE 2008 WITH WILL.I.AM (THMICHAEL J. JACKSON MICHAEL J. JACKSON                       Ringback Tone                 0750000000000000000000161+0000001+MECHAN       000000267900000161000201006
9995002130194   USSM10705880   THE GIRL IS MINE 2008 WITH WILL.I.AM (THMICHAEL J. JACKSON MICHAEL J. JACKSON                       Ringback Tone                 0750000000000000000000161+0000001+MECHAN       000000267900000161000201007
9995002130194   USSM10705880   THE GIRL IS MINE 2008 WITH WILL.I.AM (THMICHAEL J. JACKSON MICHAEL J. JACKSON                       Ringback Tone                 0750000000000000000000161+0000001+MECHAN       000000267900000161000201008
9995002130194   USSM10705880   THE GIRL IS MINE 2008 WITH WILL.I.AM (THMICHAEL J. JACKSON MICHAEL J. JACKSON                       Ringback Tone                 0750000000000000000000161+0000001+MECHAN       000000267900000161000201009
9995002130194   USSM10705880   THE GIRL IS MINE 2008 WITH WILL.I.AM (THMICHAEL J. JACKSON MICHAEL J. JACKSON                       Ringtone - Master             0750000000000000000000804+0000005+MECHAN       000000267900000160800201007
9995002130194   USSM10705880   THE GIRL IS MINE 2008 WITH WILL.I.AM (THMICHAEL J. JACKSON MICHAEL J. JACKSON                       Audio Track                   0750000000000000000001071+0000004+MECHAN       000000446400000267750200909
9995002130194   USSM10705880   THE GIRL IS MINE 2008 WITH WILL.I.AM (THMICHAEL J. JACKSON MICHAEL J. JACKSON                       Audio Track                   0750000000000000000001071+0000004+MECHAN       000000446400000267750200910
9995002130194   USSM10705880   THE GIRL IS MINE 2008 WITH WILL.I.AM (THMICHAEL J. JACKSON MICHAEL J. JACKSON                       Audio Track                   0750000000000000000002946+0000011+MECHAN       000000446400000267820200911
9995002130194   USSM10705880   THE GIRL IS MINE 2008 WITH WILL.I.AM (THMICHAEL J. JACKSON MICHAEL J. JACKSON                       Audio Track                   0750000000000000000002946+0000011+MECHAN       000000446400000267820200912
9995002130194   USSM10705880   THE GIRL IS MINE 2008 WITH WILL.I.AM (THMICHAEL J. JACKSON MICHAEL J. JACKSON                       Audio Track                   0750000000000000000002143+0000008+MECHAN       000000446400000267880201002
9995002130194   USSM10705880   THE GIRL IS MINE 2008 WITH WILL.I.AM (THMICHAEL J. JACKSON MICHAEL J. JACKSON                       Audio Track                   0750000000000000000001071+0000004+MECHAN       000000446400000267750201003
9995002130194   USSM10705880   THE GIRL IS MINE 2008 WITH WILL.I.AM (THMICHAEL J. JACKSON MICHAEL J. JACKSON                       Audio Track                   0750000000000000000000268+0000001+MECHAN       000000446400000268000201008
9995002131904   USSM10705929   WANNA BE STARTIN' SOMETHIN' 2008 WITH AKALIAUNE THIAM ALIAUNE THIAM GIORGIO TUINFORT GIORGIO TUINFORRingback Tone                 0750000000000000000000402+0000005+MECHAN       000000133900000080400201006
9995002131904   USSM10705929   WANNA BE STARTIN' SOMETHIN' 2008 WITH AKALIAUNE THIAM ALIAUNE THIAM GIORGIO TUINFORT GIORGIO TUINFORRingback Tone                 0750000000000000000037446+0000233+MECHAN       000000267900000160710201006
9995002131904   USSM10705929   WANNA BE STARTIN' SOMETHIN' 2008 WITH AKALIAUNE THIAM ALIAUNE THIAM GIORGIO TUINFORT GIORGIO TUINFORRingback Tone                 0750000000000000000000482+0000006+MECHAN       000000133900000080330201007
9995002131904   USSM10705929   WANNA BE STARTIN' SOMETHIN' 2008 WITH AKALIAUNE THIAM ALIAUNE THIAM GIORGIO TUINFORT GIORGIO TUINFORRingback Tone                 0750000000000000000039696+0000247+MECHAN       000000267900000160710201007
9995002131904   USSM10705929   WANNA BE STARTIN' SOMETHIN' 2008 WITH AKALIAUNE THIAM ALIAUNE THIAM GIORGIO TUINFORT GIORGIO TUINFORRingback Tone                 0750000000000000000000482+0000006+MECHAN       000000133900000080330201008
9995002131904   USSM10705929   WANNA BE STARTIN' SOMETHIN' 2008 WITH AKALIAUNE THIAM ALIAUNE THIAM GIORGIO TUINFORT GIORGIO TUINFORRingback Tone                 0750000000000000000037929+0000236+MECHAN       000000267900000160720201008
9995002131904   USSM10705929   WANNA BE STARTIN' SOMETHIN' 2008 WITH AKALIAUNE THIAM ALIAUNE THIAM GIORGIO TUINFORT GIORGIO TUINFORRingback Tone                 0750000000000000000000482+0000006+MECHAN       000000133900000080330201009
9995002131904   USSM10705929   WANNA BE STARTIN' SOMETHIN' 2008 WITH AKALIAUNE THIAM ALIAUNE THIAM GIORGIO TUINFORT GIORGIO TUINFORRingback Tone                 0750000000000000000035357+0000220+MECHAN       000000267900000160710201009
9995002131904   USSM10705929   WANNA BE STARTIN' SOMETHIN' 2008 WITH AKALIAUNE THIAM ALIAUNE THIAM GIORGIO TUINFORT GIORGIO TUINFORRingback Tone                 0750000000000000000000482+0000006+MECHAN       000000133900000080330201010
9995002131904   USSM10705929   WANNA BE STARTIN' SOMETHIN' 2008 WITH AKALIAUNE THIAM ALIAUNE THIAM GIORGIO TUINFORT GIORGIO TUINFORRingback Tone                 0750000000000000000040661+0000253+MECHAN       000000267900000160720201010
9995002131904   USSM10705929   WANNA BE STARTIN' SOMETHIN' 2008 WITH AKALIAUNE THIAM ALIAUNE THIAM GIORGIO TUINFORT GIORGIO TUINFORRingback Tone                 0750000000000000000000482+0000006+MECHAN       000000133900000080330201011
9995002131904   USSM10705929   WANNA BE STARTIN' SOMETHIN' 2008 WITH AKALIAUNE THIAM ALIAUNE THIAM GIORGIO TUINFORT GIORGIO TUINFORRingback Tone                 0750000000000000000032946+0000205+MECHAN       000000267900000160710201011
9995002131904   USSM10705929   WANNA BE STARTIN' SOMETHIN' 2008 WITH AKALIAUNE THIAM ALIAUNE THIAM GIORGIO TUINFORT GIORGIO TUINFORRingback Tone                 0750000000000000000000563+0000007+MECHAN       000000133900000080430201012
9995002131904   USSM10705929   WANNA BE STARTIN' SOMETHIN' 2008 WITH AKALIAUNE THIAM ALIAUNE THIAM GIORGIO TUINFORT GIORGIO TUINFORRingback Tone                 0750000000000000000041625+0000259+MECHAN       000000267900000160710201012
9995002131904   USSM10705929   WANNA BE STARTIN' SOMETHIN' 2008 WITH AKALIAUNE THIAM ALIAUNE THIAM GIORGIO TUINFORT GIORGIO TUINFORRingback Tone                 0750000000000000000000482+0000006+MECHAN       000000133900000080330201101
9995002131904   USSM10705929   WANNA BE STARTIN' SOMETHIN' 2008 WITH AKALIAUNE THIAM ALIAUNE THIAM GIORGIO TUINFORT GIORGIO TUINFORRingback Tone                 0750000000000000000034232+0000213+MECHAN       000000267900000160710201101
9995002131904   USSM10705929   WANNA BE STARTIN' SOMETHIN' 2008 WITH AKALIAUNE THIAM ALIAUNE THIAM GIORGIO TUINFORT GIORGIO TUINFORRingback Tone                 0750000000000000000000402+0000005+MECHAN       000000133900000080400201102
9995002131904   USSM10705929   WANNA BE STARTIN' SOMETHIN' 2008 WITH AKALIAUNE THIAM ALIAUNE THIAM GIORGIO TUINFORT GIORGIO TUINFORRingback Tone                 0750000000000000000022982+0000143+MECHAN       000000267900000160710201102
9995002131904   USSM10705929   WANNA BE STARTIN' SOMETHIN' 2008 WITH AKALIAUNE THIAM ALIAUNE THIAM GIORGIO TUINFORT GIORGIO TUINFORRingback Tone                 0750000000000000000000321+0000004+MECHAN       000000133900000080250201103
9995002131904   USSM10705929   WANNA BE STARTIN' SOMETHIN' 2008 WITH AKALIAUNE THIAM ALIAUNE THIAM GIORGIO TUINFORT GIORGIO TUINFORRingback Tone                 0750000000000000000039054+0000243+MECHAN       000000267900000160720201103
9995002131904   USSM10705929   WANNA BE STARTIN' SOMETHIN' 2008 WITH AKALIAUNE THIAM ALIAUNE THIAM GIORGIO TUINFORT GIORGIO TUINFORRingback Tone                 0750000000000000000000723+0000009+MECHAN       000000133900000080330201104
9995002131904   USSM10705929   WANNA BE STARTIN' SOMETHIN' 2008 WITH AKALIAUNE THIAM ALIAUNE THIAM GIORGIO TUINFORT GIORGIO TUINFORRingback Tone                 0750000000000000000037607+0000234+MECHAN       000000267900000160710201104
9995002131904   USSM10705929   WANNA BE STARTIN' SOMETHIN' 2008 WITH AKALIAUNE THIAM ALIAUNE THIAM GIORGIO TUINFORT GIORGIO TUINFORAudio Track                   0750000000000000000000536+0000002+MECHAN       000000446400000268000200909
9995002131904   USSM10705929   WANNA BE STARTIN' SOMETHIN' 2008 WITH AKALIAUNE THIAM ALIAUNE THIAM GIORGIO TUINFORT GIORGIO TUINFORAudio Track                   0750000000000000000000536+0000002+MECHAN       000000446400000268000201002
9995002131904   USSM10705929   WANNA BE STARTIN' SOMETHIN' 2008 WITH AKALIAUNE THIAM ALIAUNE THIAM GIORGIO TUINFORT GIORGIO TUINFORAudio Track                   0750000000000000000000268+0000001+MECHAN       000000446400000268000201004
9995002131904   USSM10705929   WANNA BE STARTIN' SOMETHIN' 2008 WITH AKALIAUNE THIAM ALIAUNE THIAM GIORGIO TUINFORT GIORGIO TUINFORAudio Track                   0750000000000000000000536+0000002+MECHAN       000000446400000268000201008
9995002131904   USSM10705929   WANNA BE STARTIN' SOMETHIN' 2008 WITH AKALIAUNE THIAM ALIAUNE THIAM GIORGIO TUINFORT GIORGIO TUINFORAudio Track                   0750000000000000000000804+0000003+MECHAN       000000446400000268000201010
9995002131904   USSM10705929   WANNA BE STARTIN' SOMETHIN' 2008 WITH AKALIAUNE THIAM ALIAUNE THIAM GIORGIO TUINFORT GIORGIO TUINFORAudio Track                   0750000000000000000000268+0000001+MECHAN       000000446400000268000201011
9995002131904   USSM10705929   WANNA BE STARTIN' SOMETHIN' 2008 WITH AKALIAUNE THIAM ALIAUNE THIAM GIORGIO TUINFORT GIORGIO TUINFORAudio Track                   0750000000000000000000268+0000001+MECHAN       000000446400000268000201012
Sony Music Entertainment PhiliWARNER/CHAPPELL MUSIC PHILIPPI201107201112PHP DOLLAR
9995002287861   USSM11102904   BEST THING I NEVER HAD                  ANTONIO DIXON ANTONIO DIXON BEYONCE KNOWLES BEYONCE KNOWLES Ringback Tone                 0100000000000000000000011+0000001+MECHAN       000000133900000011000201107
9995002287861   USSM11102904   BEST THING I NEVER HAD                  ANTONIO DIXON ANTONIO DIXON BEYONCE KNOWLES BEYONCE KNOWLES Ringback Tone                 0100000000000000000000011+0000003+MECHAN       000000044600000003670201109
9995002287861   USSM11102904   BEST THING I NEVER HAD                  ANTONIO DIXON ANTONIO DIXON BEYONCE KNOWLES BEYONCE KNOWLES Ringback Tone                 0100000000000000000000021+0000002+MECHAN       000000133900000010500201109
9995002287861   USSM11102904   BEST THING I NEVER HAD                  ANTONIO DIXON ANTONIO DIXON BEYONCE KNOWLES BEYONCE KNOWLES Ringback Tone                 0100000000000000000000004+0000001+MECHAN       000000044600000004000201110
9995002287861   USSM11102904   BEST THING I NEVER HAD                  ANTONIO DIXON ANTONIO DIXON BEYONCE KNOWLES BEYONCE KNOWLES Ringback Tone                 0100000000000000000000043+0000004+MECHAN       000000133900000010750201110
9995002171174   GBCTA0900006   I DO NOT HOOK UP                        GREG WELLS GREG WELLS KARA DIOGUARDI KARA DIOGUARDI KATY PERRingback Tone                 0333400000000000000000060+0000005+MECHAN       000000044600000012000201004
9995002171174   GBCTA0900006   I DO NOT HOOK UP                        GREG WELLS GREG WELLS KARA DIOGUARDI KARA DIOGUARDI KATY PERRingback Tone                 0333400000000000000000050+0000003+MECHAN       000000062500000016670201004
9995002171174   GBCTA0900006   I DO NOT HOOK UP                        GREG WELLS GREG WELLS KARA DIOGUARDI KARA DIOGUARDI KATY PERRingback Tone                 0333400000000000000000143+0000004+MECHAN       000000133900000035750201004
9995002171174   GBCTA0900006   I DO NOT HOOK UP                        GREG WELLS GREG WELLS KARA DIOGUARDI KARA DIOGUARDI KATY PERRingback Tone                 0333400000000000000000024+0000002+MECHAN       000000044600000012000201005
9995002171174   GBCTA0900006   I DO NOT HOOK UP                        GREG WELLS GREG WELLS KARA DIOGUARDI KARA DIOGUARDI KATY PERRingback Tone                 0333400000000000000000050+0000003+MECHAN       000000062500000016670201005
9995002171174   GBCTA0900006   I DO NOT HOOK UP                        GREG WELLS GREG WELLS KARA DIOGUARDI KARA DIOGUARDI KATY PERRingback Tone                 0333400000000000000000107+0000003+MECHAN       000000133900000035670201005
9995002171174   GBCTA0900006   I DO NOT HOOK UP                        GREG WELLS GREG WELLS KARA DIOGUARDI KARA DIOGUARDI KATY PERRingback Tone                 0333400000000000000000017+0000001+MECHAN       000000062500000017000201006
9995002171174   GBCTA0900006   I DO NOT HOOK UP                        GREG WELLS GREG WELLS KARA DIOGUARDI KARA DIOGUARDI KATY PERRingback Tone                 0333400000000000000000107+0000003+MECHAN       000000133900000035670201006
9995002171174   GBCTA0900006   I DO NOT HOOK UP                        GREG WELLS GREG WELLS KARA DIOGUARDI KARA DIOGUARDI KATY PERRingback Tone                 0333400000000000000000107+0000003+MECHAN       000000133900000035670201008
9995002171174   GBCTA0900006   I DO NOT HOOK UP                        GREG WELLS GREG WELLS KARA DIOGUARDI KARA DIOGUARDI KATY PERRingback Tone                 0333400000000000000000071+0000002+MECHAN       000000133900000035500201009
9995002171174   GBCTA0900006   I DO NOT HOOK UP                        GREG WELLS GREG WELLS KARA DIOGUARDI KARA DIOGUARDI KATY PERRingback Tone                 0333400000000000000000071+0000002+MECHAN       000000133900000035500201010
9995002171174   GBCTA0900006   I DO NOT HOOK UP                        GREG WELLS GREG WELLS KARA DIOGUARDI KARA DIOGUARDI KATY PERRingback Tone                 0333400000000000000000036+0000001+MECHAN       000000133900000036000201011
9995002171174   GBCTA0900006   I DO NOT HOOK UP                        GREG WELLS GREG WELLS KARA DIOGUARDI KARA DIOGUARDI KATY PERRingback Tone                 0333400000000000000000036+0000001+MECHAN       000000133900000036000201012
9995002171174   GBCTA0900006   I DO NOT HOOK UP                        GREG WELLS GREG WELLS KARA DIOGUARDI KARA DIOGUARDI KATY PERRingback Tone                 0333400000000000000000012+0000002+MECHAN       000000022700000006000201103
9995002171174   GBCTA0900006   I DO NOT HOOK UP                        GREG WELLS GREG WELLS KARA DIOGUARDI KARA DIOGUARDI KATY PERRingback Tone                 0333400000000000000000060+0000010+MECHAN       000000022300000006000201104
9995002171174   GBCTA0900006   I DO NOT HOOK UP                        GREG WELLS GREG WELLS KARA DIOGUARDI KARA DIOGUARDI KATY PERRingback Tone                 0333400000000000000000006+0000001+MECHAN       000000022700000006000201104
9995002171174   GBCTA0900006   I DO NOT HOOK UP                        GREG WELLS GREG WELLS KARA DIOGUARDI KARA DIOGUARDI KATY PERRingback Tone                 0333400000000000000000071+0000006+MECHAN       000000044600000011830201104
9995002171174   GBCTA0900006   I DO NOT HOOK UP                        GREG WELLS GREG WELLS KARA DIOGUARDI KARA DIOGUARDI KATY PERRingback Tone                 0333400000000000000000012+0000001+MECHAN       000000045400000012000201104
9995002171174   GBCTA0900006   I DO NOT HOOK UP                        GREG WELLS GREG WELLS KARA DIOGUARDI KARA DIOGUARDI KATY PERRingback Tone                 0333400000000000000000217+0000013+MECHAN       000000062500000016690201104
9995002171174   GBCTA0900006   I DO NOT HOOK UP                        GREG WELLS GREG WELLS KARA DIOGUARDI KARA DIOGUARDI KATY PERRingback Tone                 0333400000000000000002000+0000056+MECHAN       000000133900000035710201104
9995002171174   GBCTA0900006   I DO NOT HOOK UP                        GREG WELLS GREG WELLS KARA DIOGUARDI KARA DIOGUARDI KATY PERRingback Tone                 0333400000000000000000095+0000016+MECHAN       000000022300000005940201105
9995002171174   GBCTA0900006   I DO NOT HOOK UP                        GREG WELLS GREG WELLS KARA DIOGUARDI KARA DIOGUARDI KATY PERRingback Tone                 0333400000000000000000131+0000011+MECHAN       000000044600000011910201105
9995002171174   GBCTA0900006   I DO NOT HOOK UP                        GREG WELLS GREG WELLS KARA DIOGUARDI KARA DIOGUARDI KATY PERRingback Tone                 0333400000000000000000267+0000016+MECHAN       000000062500000016690201105
9995002171174   GBCTA0900006   I DO NOT HOOK UP                        GREG WELLS GREG WELLS KARA DIOGUARDI KARA DIOGUARDI KATY PERRingback Tone                 0333400000000000000001857+0000052+MECHAN       000000133900000035710201105
9995002171174   GBCTA0900006   I DO NOT HOOK UP                        GREG WELLS GREG WELLS KARA DIOGUARDI KARA DIOGUARDI KATY PERRingback Tone                 0333400000000000000000143+0000002+MECHAN       000000267900000071500201105
9995002171174   GBCTA0900006   I DO NOT HOOK UP                        GREG WELLS GREG WELLS KARA DIOGUARDI KARA DIOGUARDI KATY PERRingback Tone                 0333400000000000000000042+0000007+MECHAN       000000022300000006000201106
9995002171174   GBCTA0900006   I DO NOT HOOK UP                        GREG WELLS GREG WELLS KARA DIOGUARDI KARA DIOGUARDI KATY PERRingback Tone                 0333400000000000000000167+0000014+MECHAN       000000044600000011930201106
9995002171174   GBCTA0900006   I DO NOT HOOK UP                        GREG WELLS GREG WELLS KARA DIOGUARDI KARA DIOGUARDI KATY PERRingback Tone                 0333400000000000000000367+0000022+MECHAN       000000062500000016680201106
9995002171174   GBCTA0900006   I DO NOT HOOK UP                        GREG WELLS GREG WELLS KARA DIOGUARDI KARA DIOGUARDI KATY PERRingback Tone                 0333400000000000000001678+0000047+MECHAN       000000133900000035700201106
9995002171174   GBCTA0900006   I DO NOT HOOK UP                        GREG WELLS GREG WELLS KARA DIOGUARDI KARA DIOGUARDI KATY PERRingback Tone                 0333400000000000000000143+0000002+MECHAN       000000267900000071500201106
9995002171174   GBCTA0900006   I DO NOT HOOK UP                        GREG WELLS GREG WELLS KARA DIOGUARDI KARA DIOGUARDI KATY PERRingback Tone                 0333400000000000000000071+0000002+MECHAN       000000133900000035500201107
9995002171174   GBCTA0900006   I DO NOT HOOK UP                        GREG WELLS GREG WELLS KARA DIOGUARDI KARA DIOGUARDI KATY PERRingback Tone                 0333400000000000000000143+0000002+MECHAN       000000267900000071500201107
9995002171174   GBCTA0900006   I DO NOT HOOK UP                        GREG WELLS GREG WELLS KARA DIOGUARDI KARA DIOGUARDI KATY PERRingback Tone                 0333400000000000000000036+0000001+MECHAN       000000133900000036000201108
9995002171174   GBCTA0900006   I DO NOT HOOK UP                        GREG WELLS GREG WELLS KARA DIOGUARDI KARA DIOGUARDI KATY PERRingback Tone                 0333400000000000000000143+0000002+MECHAN       000000267900000071500201108
9995002171174   GBCTA0900006   I DO NOT HOOK UP                        GREG WELLS GREG WELLS KARA DIOGUARDI KARA DIOGUARDI KATY PERRingback Tone                 0333400000000000000000012+0000001+MECHAN       000000044600000012000201109
9995002171174   GBCTA0900006   I DO NOT HOOK UP                        GREG WELLS GREG WELLS KARA DIOGUARDI KARA DIOGUARDI KATY PERRingback Tone                 0333400000000000000000036+0000001+MECHAN       000000133900000036000201109
9995002171174   GBCTA0900006   I DO NOT HOOK UP                        GREG WELLS GREG WELLS KARA DIOGUARDI KARA DIOGUARDI KATY PERRingback Tone                 0333400000000000000000143+0000002+MECHAN       000000267900000071500201109
9995002171174   GBCTA0900006   I DO NOT HOOK UP                        GREG WELLS GREG WELLS KARA DIOGUARDI KARA DIOGUARDI KATY PERRingback Tone                 0333400000000000000000071+0000002+MECHAN       000000133900000035500201110
9995002171174   GBCTA0900006   I DO NOT HOOK UP                        GREG WELLS GREG WELLS KARA DIOGUARDI KARA DIOGUARDI KATY PERRingback Tone                 0333400000000000000000214+0000003+MECHAN       000000267900000071330201110
0000000049687   USAR10000022   I HAVE NOTHING (REMASTERED: 2000)       FOSTER D/THOMPSON L/ARR:HOUSTON W                           Audio Track                   0375000000000000000000134+0000001+MECHAN       000000446400000134000201101
9995002131903   USSM10705928   P.Y.T. (PRETTY YOUNG THING) 2008 WITH WIMICHAEL JACKSON MICHAEL JACKSON                             Ringback Tone                 0500000000000000000000100+0000004+MECHAN       000000062500000025000201004
9995002131903   USSM10705928   P.Y.T. (PRETTY YOUNG THING) 2008 WITH WIMICHAEL JACKSON MICHAEL JACKSON                             Ringback Tone                 0500000000000000000000125+0000005+MECHAN       000000062500000025000201005
9995002131903   USSM10705928   P.Y.T. (PRETTY YOUNG THING) 2008 WITH WIMICHAEL JACKSON MICHAEL JACKSON                             Ringback Tone                 0500000000000000000000125+0000005+MECHAN       000000062500000025000201006
9995002131903   USSM10705928   P.Y.T. (PRETTY YOUNG THING) 2008 WITH WIMICHAEL JACKSON MICHAEL JACKSON                             Ringback Tone                 0500000000000000000000054+0000001+MECHAN       000000133900000054000201006
9995002131903   USSM10705928   P.Y.T. (PRETTY YOUNG THING) 2008 WITH WIMICHAEL JACKSON MICHAEL JACKSON                             Ringback Tone                 0500000000000000000000036+0000002+MECHAN       000000044600000018000201007
9995002131903   USSM10705928   P.Y.T. (PRETTY YOUNG THING) 2008 WITH WIMICHAEL JACKSON MICHAEL JACKSON                             Ringback Tone                 0500000000000000000000100+0000004+MECHAN       000000062500000025000201007
9995002131903   USSM10705928   P.Y.T. (PRETTY YOUNG THING) 2008 WITH WIMICHAEL JACKSON MICHAEL JACKSON                             Ringback Tone                 0500000000000000000000125+0000005+MECHAN       000000062500000025000201008
9995002131903   USSM10705928   P.Y.T. (PRETTY YOUNG THING) 2008 WITH WIMICHAEL JACKSON MICHAEL JACKSON                             Ringback Tone                 0500000000000000000000100+0000004+MECHAN       000000062500000025000201009
9995002131903   USSM10705928   P.Y.T. (PRETTY YOUNG THING) 2008 WITH WIMICHAEL JACKSON MICHAEL JACKSON                             Ringback Tone                 0500000000000000000000100+0000004+MECHAN       000000062500000025000201010
9995002131903   USSM10705928   P.Y.T. (PRETTY YOUNG THING) 2008 WITH WIMICHAEL JACKSON MICHAEL JACKSON                             Ringback Tone                 0500000000000000000000125+0000005+MECHAN       000000062500000025000201011
9995002131903   USSM10705928   P.Y.T. (PRETTY YOUNG THING) 2008 WITH WIMICHAEL JACKSON MICHAEL JACKSON                             Ringback Tone                 0500000000000000000000100+0000004+MECHAN       000000062500000025000201012
9995002131903   USSM10705928   P.Y.T. (PRETTY YOUNG THING) 2008 WITH WIMICHAEL JACKSON MICHAEL JACKSON                             Ringback Tone                 0500000000000000000000025+0000001+MECHAN       000000062500000025000201101
9995002131903   USSM10705928   P.Y.T. (PRETTY YOUNG THING) 2008 WITH WIMICHAEL JACKSON MICHAEL JACKSON                             Ringback Tone                 0500000000000000000000100+0000004+MECHAN       000000062500000025000201102
2600000046304   USAR19900870   THANK YOU (ALBUM VERSION)               MICHAEL JACKSON                                             Ringback Tone                 0600000000000000000000064+0000001+MECHAN       000000133900000064000201008
2600000046304   USAR19900870   THANK YOU (ALBUM VERSION)               MICHAEL JACKSON                                             Ringback Tone                 0600000000000000000000129+0000002+MECHAN       000000133900000064500201011
2600000046304   USAR19900870   THANK YOU (ALBUM VERSION)               MICHAEL JACKSON                                             Ringback Tone                 0600000000000000000000030+0000001+MECHAN       000000062500000030000201104
2600000046304   USAR19900870   THANK YOU (ALBUM VERSION)               MICHAEL JACKSON                                             Ringback Tone                 0600000000000000000000150+0000005+MECHAN       000000062500000030000201105
2600000046304   USAR19900870   THANK YOU (ALBUM VERSION)               MICHAEL JACKSON                                             Ringback Tone                 0600000000000000000000021+0000001+MECHAN       000000044600000021000201106
2600000046304   USAR19900870   THANK YOU (ALBUM VERSION)               MICHAEL JACKSON                                             Ringback Tone                 0600000000000000000000060+0000002+MECHAN       000000062500000030000201106
9995002130194   USSM10705880   THE GIRL IS MINE 2008 WITH WILL.I.AM (THMICHAEL J. JACKSON MICHAEL J. JACKSON                       Ringback Tone                 0750000000000000000000526+0000014+MECHAN       000000062500000037570201004
9995002130194   USSM10705880   THE GIRL IS MINE 2008 WITH WILL.I.AM (THMICHAEL J. JACKSON MICHAEL J. JACKSON                       Ringback Tone                 0750000000000000000000638+0000017+MECHAN       000000062500000037530201005
9995002130194   USSM10705880   THE GIRL IS MINE 2008 WITH WILL.I.AM (THMICHAEL J. JACKSON MICHAEL J. JACKSON                       Ringback Tone                 0750000000000000000000027+0000001+MECHAN       000000044600000027000201006
9995002130194   USSM10705880   THE GIRL IS MINE 2008 WITH WILL.I.AM (THMICHAEL J. JACKSON MICHAEL J. JACKSON                       Ringback Tone                 0750000000000000000000750+0000020+MECHAN       000000062500000037500201006
9995002130194   USSM10705880   THE GIRL IS MINE 2008 WITH WILL.I.AM (THMICHAEL J. JACKSON MICHAEL J. JACKSON                       Ringback Tone                 0750000000000000000000027+0000001+MECHAN       000000044600000027000201007
9995002130194   USSM10705880   THE GIRL IS MINE 2008 WITH WILL.I.AM (THMICHAEL J. JACKSON MICHAEL J. JACKSON                       Ringback Tone                 0750000000000000000000825+0000022+MECHAN       000000062500000037500201007
9995002130194   USSM10705880   THE GIRL IS MINE 2008 WITH WILL.I.AM (THMICHAEL J. JACKSON MICHAEL J. JACKSON                       Ringback Tone                 0750000000000000000000788+0000021+MECHAN       000000062500000037520201008
9995002130194   USSM10705880   THE GIRL IS MINE 2008 WITH WILL.I.AM (THMICHAEL J. JACKSON MICHAEL J. JACKSON                       Ringback Tone                 0750000000000000000000713+0000019+MECHAN       000000062500000037530201009
9995002130194   USSM10705880   THE GIRL IS MINE 2008 WITH WILL.I.AM (THMICHAEL J. JACKSON MICHAEL J. JACKSON                       Ringback Tone                 0750000000000000000000027+0000001+MECHAN       000000044600000027000201010
9995002130194   USSM10705880   THE GIRL IS MINE 2008 WITH WILL.I.AM (THMICHAEL J. JACKSON MICHAEL J. JACKSON                       Ringback Tone                 0750000000000000000000863+0000023+MECHAN       000000062500000037520201010
9995002130194   USSM10705880   THE GIRL IS MINE 2008 WITH WILL.I.AM (THMICHAEL J. JACKSON MICHAEL J. JACKSON                       Ringback Tone                 0750000000000000000000825+0000022+MECHAN       000000062500000037500201011
9995002130194   USSM10705880   THE GIRL IS MINE 2008 WITH WILL.I.AM (THMICHAEL J. JACKSON MICHAEL J. JACKSON                       Ringback Tone                 0750000000000000000000863+0000023+MECHAN       000000062500000037520201012
9995002130194   USSM10705880   THE GIRL IS MINE 2008 WITH WILL.I.AM (THMICHAEL J. JACKSON MICHAEL J. JACKSON                       Ringback Tone                 0750000000000000000000027+0000001+MECHAN       000000044600000027000201101
9995002130194   USSM10705880   THE GIRL IS MINE 2008 WITH WILL.I.AM (THMICHAEL J. JACKSON MICHAEL J. JACKSON                       Ringback Tone                 0750000000000000000000300+0000008+MECHAN       000000062500000037500201101
9995002130194   USSM10705880   THE GIRL IS MINE 2008 WITH WILL.I.AM (THMICHAEL J. JACKSON MICHAEL J. JACKSON                       Ringback Tone                 0750000000000000000000188+0000005+MECHAN       000000062500000037600201102
9995002130194   USSM10705880   THE GIRL IS MINE 2008 WITH WILL.I.AM (THMICHAEL J. JACKSON MICHAEL J. JACKSON                       Ringback Tone                 0750000000000000000000055+0000002+MECHAN       000000045400000027500201103
9995002130194   USSM10705880   THE GIRL IS MINE 2008 WITH WILL.I.AM (THMICHAEL J. JACKSON MICHAEL J. JACKSON                       Ringback Tone                 0750000000000000000000038+0000001+MECHAN       000000063600000038000201103
9995002130194   USSM10705880   THE GIRL IS MINE 2008 WITH WILL.I.AM (THMICHAEL J. JACKSON MICHAEL J. JACKSON                       Ringback Tone                 0750000000000000000000109+0000004+MECHAN       000000045400000027250201104
9995002130194   USSM10705880   THE GIRL IS MINE 2008 WITH WILL.I.AM (THMICHAEL J. JACKSON MICHAEL J. JACKSON                       Ringback Tone                 0750000000000000000000038+0000001+MECHAN       000000063600000038000201104
9995002130194   USSM10705880   THE GIRL IS MINE 2008 WITH WILL.I.AM (THMICHAEL J. JACKSON MICHAEL J. JACKSON                       Ringback Tone                 0750000000000000000000082+0000001+MECHAN       000000136300000082000201104
9995002130194   USSM10705880   THE GIRL IS MINE 2008 WITH WILL.I.AM (THMICHAEL J. JACKSON MICHAEL J. JACKSON                       Ringback Tone                 0750000000000000000000068+0000005+MECHAN       000000022800000013600201105
9995002130194   USSM10705880   THE GIRL IS MINE 2008 WITH WILL.I.AM (THMICHAEL J. JACKSON MICHAEL J. JACKSON                       Ringback Tone                 0750000000000000000000014+0000001+MECHAN       000000022800000014000201105
9995002130194   USSM10705880   THE GIRL IS MINE 2008 WITH WILL.I.AM (THMICHAEL J. JACKSON MICHAEL J. JACKSON                       Ringback Tone                 0750000000000000000000027+0000001+MECHAN       000000045400000027000201105
9995002130194   USSM10705880   THE GIRL IS MINE 2008 WITH WILL.I.AM (THMICHAEL J. JACKSON MICHAEL J. JACKSON                       Ringback Tone                 0750000000000000000000076+0000002+MECHAN       000000063700000038000201105
9995002130194   USSM10705880   THE GIRL IS MINE 2008 WITH WILL.I.AM (THMICHAEL J. JACKSON MICHAEL J. JACKSON                       Ringback Tone                 0750000000000000000000082+0000001+MECHAN       000000136300000082000201105
9995002130194   USSM10705880   THE GIRL IS MINE 2008 WITH WILL.I.AM (THMICHAEL J. JACKSON MICHAEL J. JACKSON                       Ringback Tone                 0750000000000000000000014+0000001+MECHAN       000000022700000014000201106
9995002130194   USSM10705880   THE GIRL IS MINE 2008 WITH WILL.I.AM (THMICHAEL J. JACKSON MICHAEL J. JACKSON                       Ringback Tone                 0750000000000000000000014+0000001+MECHAN       000000022700000014000201106
9995002130194   USSM10705880   THE GIRL IS MINE 2008 WITH WILL.I.AM (THMICHAEL J. JACKSON MICHAEL J. JACKSON                       Ringback Tone                 0750000000000000000000027+0000001+MECHAN       000000045300000027000201106
9995002130194   USSM10705880   THE GIRL IS MINE 2008 WITH WILL.I.AM (THMICHAEL J. JACKSON MICHAEL J. JACKSON                       Ringback Tone                 0750000000000000000000038+0000001+MECHAN       000000063600000038000201106
9995002130194   USSM10705880   THE GIRL IS MINE 2008 WITH WILL.I.AM (THMICHAEL J. JACKSON MICHAEL J. JACKSON                       Ringback Tone                 0750000000000000000000055+0000002+MECHAN       000000045400000027500201107
9995002130194   USSM10705880   THE GIRL IS MINE 2008 WITH WILL.I.AM (THMICHAEL J. JACKSON MICHAEL J. JACKSON                       Ringback Tone                 0750000000000000000000076+0000002+MECHAN       000000063700000038000201107
