Warner Music Hong Kong Ltd.   WARNER CHAPPELL MUSIC         201301201306HKD            HK                                                                                                                        
000116          3984263132        DANG WO XIANG QI NI                     LIN MIN CONG                                                100000000000000000000206500+0000161+MECHAN       000000570000000001282400000000675
000116          5046619032        DANG WO XIANG QI NI                     LIN MIN CONG                                                100000000000000000000207200+0000105+MECHAN       000000760000000001973000000000675
000116          5051865183822     DANG WO XIANG QI NI                     LIN MIN CONG                                                100000000000000000000448900+0000245+MECHAN       000001140000000001832200000000675
000116          5052498589821     DANG WO XIANG QI NI                     LIN MIN CONG                                                100000000000000000000009700+0000001+MECHAN       000001430000000009652500000000675
000116          5101139672        DANG WO XIANG QI NI                     LIN MIN CONG                                                100000000000000000000627100+0000489+MECHAN       000000570000000001282400000000675
000116          510119726         DANG WO XIANG QI NI                     LIN MIN CONG                                                100000000000000000000934100+0000383+MECHAN       000001030000000002438900000000675
000134          5101139682        QIAN %%%                                DAVID FOSTER/T DUBOIS/PAN WEI YUAN                          037500000000000000000041400+0000086+MECHAN       000000570000000001282400000000675
000224          5051442268225     SHUI ZHONG LIAN (OT: YU ZHOU CHANG WAN) ZHENG GUO JIANG                                             100000000000000000000001300-0000001-MECHAN       000001880000000001269000000000675
000224          5052498414321     SHUI ZHONG LIAN (OT: YU ZHOU CHANG WAN) ZHENG GUO JIANG                                             100000000000000000000013300+0000004+MECHAN       000000590000000003318600000000675
000224          5052498564927     SHUI ZHONG LIAN (OT: YU ZHOU CHANG WAN) ZHENG GUO JIANG                                             100000000000000000000089600+0000013+MECHAN       000001430000000006894800000000675
000224          5052498712328     SHUI ZHONG LIAN (OT: YU ZHOU CHANG WAN) ZHENG GUO JIANG                                             100000000000000000000894000+0000894+MECHAN       000001310000000001000000000000675
000266          5052498434428     SHUI FU WO CHI QING                     LIN MIN YI/WEN JING YI                                      100000000000000000000099600+0000025+MECHAN       000000590000000003982500000000675