Warner Music Hong Kong Ltd.   WARNER CHAPPELL MUSIC         201301201306HKD            HK                                                                                                                        
000116          3984263132        DANG WO XIANG QI NI                     LIN MIN CONG                                                100000000000000000000206500+0000161+MECHAN       000000570000000001282400000000675
000116          5046619032        DANG WO XIANG QI NI                     LIN MIN CONG                                                100000000000000000000207200+0000105+MECHAN       000000760000000001973000000000675
000116          5051865183822     DANG WO XIANG QI NI                     LIN MIN CONG                                                100000000000000000000448900+0000245+MECHAN       000001140000000001832200000000675
000116          5052498589821     DANG WO XIANG QI NI                     LIN MIN CONG                                                100000000000000000000009700+0000001+MECHAN       000001430000000009652500000000675
000116          5101139672        DANG WO XIANG QI NI                     LIN MIN CONG                                                100000000000000000000627100+0000489+MECHAN       000000570000000001282400000000675
000116          510119726         DANG WO XIANG QI NI                     LIN MIN CONG                                                100000000000000000000934100+0000383+MECHAN       000001030000000002438900000000675
000134          5101139682        QIAN %%%                                DAVID FOSTER/T DUBOIS/PAN WEI YUAN                          037500000000000000000041400+0000086+MECHAN       000000570000000001282400000000675
000224          5051442268225     SHUI ZHONG LIAN (OT: YU ZHOU CHANG WAN) ZHENG GUO JIANG                                             100000000000000000000001300-0000001-MECHAN       000001880000000001269000000000675
000224          5052498414321     SHUI ZHONG LIAN (OT: YU ZHOU CHANG WAN) ZHENG GUO JIANG                                             100000000000000000000013300+0000004+MECHAN       000000590000000003318600000000675
000224          5052498564927     SHUI ZHONG LIAN (OT: YU ZHOU CHANG WAN) ZHENG GUO JIANG                                             100000000000000000000089600+0000013+MECHAN       000001430000000006894800000000675
000224          5052498712328     SHUI ZHONG LIAN (OT: YU ZHOU CHANG WAN) ZHENG GUO JIANG                                             100000000000000000000894000+0000894+MECHAN       000001310000000001000000000000675
000266          5052498434428     SHUI FU WO CHI QING                     LIN MIN YI/WEN JING YI                                      100000000000000000000099600+0000025+MECHAN       000000590000000003982500000000675
000334          3984263132        LIAN YI                                 ZHENG GUO JIANG/CHEN BAI QIANG                              100000000000000000000206500+0000161+MECHAN       000000570000000001282400000000675
000334          5046619032        LIAN YI                                 ZHENG GUO JIANG/CHEN BAI QIANG                              100000000000000000000207200+0000105+MECHAN       000000760000000001973000000000675
000334          5051865183822     LIAN YI                                 ZHENG GUO JIANG/CHEN BAI QIANG                              100000000000000000000448900+0000245+MECHAN       000001140000000001832200000000675
000334          5052498414024     LIAN YI                                 ZHENG GUO JIANG/CHEN BAI QIANG                              100000000000000000000484500+0000146+MECHAN       000000590000000003318600000000675
000334          5052498562671     LIAN YI                                 ZHENG GUO JIANG/CHEN BAI QIANG                              100000000000000000000008000+0000001+MECHAN       000001190000000008032500000000675
000334          5052498564422     LIAN YI                                 ZHENG GUO JIANG/CHEN BAI QIANG                              100000000000000000000008000+0000001+MECHAN       000001430000000008043400000000675
000334          5101139672        LIAN YI                                 ZHENG GUO JIANG/CHEN BAI QIANG                              100000000000000000000627100+0000489+MECHAN       000000570000000001282400000000675
000334          510119726         LIAN YI                                 ZHENG GUO JIANG/CHEN BAI QIANG                              100000000000000000000934100+0000383+MECHAN       000001030000000002438900000000675
000336          0090317785523     BU NENG SHUO                            NIU DA KE/CHEN JIA LI                                       050000000000000000000016500+0000007+MECHAN       000000700000000004725000000000675
000389          5052498434428     BIAN HUAN LI QIAN XING                  LIN MIN YI/PAN YUAN LIANG                                   100000000000000000000099600+0000025+MECHAN       000000590000000003982500000000675
000424          5052498434428     GU MENG                                 ZHENG GUO JIANG                                             100000000000000000000099600+0000025+MECHAN       000000590000000003982500000000675
000427          5101139752        WO TONG KU (OT: WATCHING YOU)           OSNY MELO/LIN ZHEN QIANG                                    100000000000000000000010400+0000005+MECHAN       000000460000000002070100000000675
000520          0081227968939     DIRTY MOVIES                            E VAN HALEN/A VAN HALEN/M ANTHONY/D ROTH                    075000000000000000000148500+0000110+MECHAN       000001600000000001800400000000675
000570          0081227975814     ONE                                     BARRY/ROBIN/MAURICE GIBB                                    033330000000000000000010900+0000008+MECHAN       000002550000000004098300000000675
000570          0081227984779     ONE                                     BARRY/ROBIN/MAURICE GIBB                                    033330000000000000000072900+0000077+MECHAN       000001220000000002839400000000675
000570          0081227984786     ONE                                     BARRY/ROBIN/MAURICE GIBB                                    033330000000000000000056400+0000114+MECHAN       000000880000000001485000000000675
000570          8122776462        ONE                                     BARRY/ROBIN/MAURICE GIBB                                    033330000000000000000076600+0000146+MECHAN       000000980000000001575000000000675
000604          9031729092        THIS TIME I KNOW IT'S FOR REAL          STOCK/AITKEN/WATERMAN/SUMMER                                025000000000000000000001100+0000001+MECHAN       000000880000000004569000000000675
000650          5052498464623     ROUND MIDNIGHT                          THELONIOUS MONK/B HANIGHEN/C WILLIAMS                       100000000000000000000394400+0000310+MECHAN       000001470000000001272100000000675
000805          7559606202        INTRODUCTION                            TOM WAITS                                                   100000000000000000000013300+0000001+MECHAN       000000590000000013276100000000675
000884          5051865600725     SITTING ON THE DOCK OF THE BAY          OTIS REDDING/STEVE CROPPER                                  025000000000000000000021700+0000084+MECHAN       000001380000000001034900000000675
000884          812277663         SITTING ON THE DOCK OF THE BAY          OTIS REDDING/STEVE CROPPER                                  025000000000000000000002200+0000004+MECHAN       000000980000000002204800000000675
001412          5101139762        RI XI HUI WEI                           XU RI QIN/XIAO MEI                                          100000000000000000000035200+0000017+MECHAN       000000460000000002070100000000675
001508          3984263132        CHUANG SHI JI                           LIN ZHEN QIANG/LIN MU DE                                    100000000000000000000206500+0000161+MECHAN       000000570000000001282400000000675
001508          5051865997528     CHUANG SHI JI                           LIN ZHEN QIANG/LIN MU DE                                    100000000000000000000180000+0000180+MECHAN       000001310000000001000000000000675
001508          5052498414024     CHUANG SHI JI                           LIN ZHEN QIANG/LIN MU DE                                    100000000000000000000484500+0000146+MECHAN       000000590000000003318600000000675
001508          5052498490424     CHUANG SHI JI                           LIN ZHEN QIANG/LIN MU DE                                    100000000000000000000072400+0000020+MECHAN       000000590000000003620500000000675
001508          5101139672        CHUANG SHI JI                           LIN ZHEN QIANG/LIN MU DE                                    100000000000000000000627100+0000489+MECHAN       000000570000000001282400000000675
001508          510119726         CHUANG SHI JI                           LIN ZHEN QIANG/LIN MU DE                                    100000000000000000000467100+0000383+MECHAN       000001030000000001219500000000675
001546          3984291562        NAN BEI YI JIA QIN (OT: LET'S ALL SPEAK DICK LEE/ZHOU XAO HUI                                       100000000000000000000130400+0000092+MECHAN       000000444600000001417600000000700
001601          5053105002627     DOU ZHENG DE BIAN JIE                   L GRAMM/B TURGON/LIU ZHUO HUI                               005000000000000000000000600+0000001+MECHAN       000001600000000011999900000000675
001686          5052498441020     SHI SHI RU QI                           XU GUAN JIE/LI BI DE                                        100000000000000000000339000+0000339+MECHAN       000001310000000001000000000000675
001687          3984263082        TIAN CAI BAI CHI WANG RI QING           XU GUAN JIE/XUE ZHI XIONG                                   100000000000000000000132500+0000103+MECHAN       000000570000000001286200000000675
001687          5052498441020     TIAN CAI BAI CHI WANG RI QING           XU GUAN JIE/XUE ZHI XIONG                                   100000000000000000000339000+0000339+MECHAN       000001310000000001000000000000675
001687          5101140222        TIAN CAI BAI CHI WANG RI QING           XU GUAN JIE/XUE ZHI XIONG                                   100000000000000000000052600+0000041+MECHAN       000000570000000001282400000000675
001687          510119778         TIAN CAI BAI CHI WANG RI QING           XU GUAN JIE/XUE ZHI XIONG                                   100000000000000000000242700+0000199+MECHAN       000001030000000001219500000000675
001698          5053105647620     YA JI LA                                TAI JI/YIN KUI                                              100000000000000000001061900+0000160+MECHAN       000000590000000006636800000000675
001698          5101139682        YA JI LA                                TAI JI/YIN KUI                                              100000000000000000000110300+0000086+MECHAN       000000570000000001282400000000675
001812          5052498490127     CHE ZHAN                                LIN MIN YI/PAN YUAN LIANG/LIN ZHEN QIANG                    100000000000000000000052100+0000017+MECHAN       000000590000000003063300000000675
001821          3984263132        BU ZAI WEN JIU JING                     LIN ZHEN QIANG/LIN MU DE                                    100000000000000000000206500+0000161+MECHAN       000000570000000001282400000000675
001821          3984291562        BU ZAI WEN JIU JING                     LIN ZHEN QIANG/LIN MU DE                                    100000000000000000000092000+0000092+MECHAN       000000444600000001000000000000700
001821          5052498757220     BU ZAI WEN JIU JING                     LIN ZHEN QIANG/LIN MU DE                                    100000000000000000000005400+0000001+MECHAN       000001430000000005362900000000675
001821          5101139672        BU ZAI WEN JIU JING                     LIN ZHEN QIANG/LIN MU DE                                    100000000000000000000627100+0000489+MECHAN       000000570000000001282400000000675
001821          510119726         BU ZAI WEN JIU JING                     LIN ZHEN QIANG/LIN MU DE                                    100000000000000000000467100+0000383+MECHAN       000001030000000001219500000000675
001831          0090317786025     BA JIN TIAN HUAN GEI ZUO TIAN           HUANG DA JUN                                                100000000000000000000023600+0000005+MECHAN       000000700000000004725000000000675
001924          5051865451228     LING WU %%%                             LI ZONG SHENG                                               100000000000000000001742000+0001742+MECHAN       000001470000000001000000000000675
002114          5052498460526     ZHONG YU SHENG LI                       BARRY GIBB/MAURICE GIBB/ROBIN GIBB/LINXI                    033340000000000000000059000+0000022+MECHAN       000001310000000008038700000000675
002189          5101139772        CENG JING AI NI                         BAO BI DA/TANG ZHENG CHUAN                                  100000000000000000000002100+0000001+MECHAN       000000460000000002070100000000675
002192          5052498410828     SHA WANG                                BAO BI DA/LIN MIN CONG                                      100000000000000000000146000+0000044+MECHAN       000000590000000003318600000000675
002192          5053105003426     SHA WANG                                BAO BI DA/LIN MIN CONG                                      100000000000000000000099000+0000011+MECHAN       000001600000000008999600000000675
002216          5052498742523     JIN YE SHOU GUI JU                      ZHOU QI SHENG/YIN KUI                                       100000000000000000000051800+0000013+MECHAN       000000590000000003982500000000675
002220          5052498619221     SHI NI                                  FABIO CARLI/DA HUI                                          100000000000000000000115500+0000029+MECHAN       000000590000000003982500000000675
002261          5051865997528     TIAN LAI                                LU GUAN TING/YE HAN LIANG                                   100000000000000000000180000+0000180+MECHAN       000001310000000001000000000000675
002300          5053105256112     SHEN SHEN YONG ZHUO WO                  SHIRE/CONNORS/LIN ZHEN QIANG                                100000000000000000001841300+0000286+MECHAN       000001240000000006438200000000675
002317          9031779732        YONG YUAN ZAI WO XIN LI                 WANG JIE                                                    100000000000000000000023600+0000005+MECHAN       000000700000000004725000000000675
002350          5052498414123     MI WANG (OT: EVERYTIME YOU GO AWAY)     D HALL/WEN JING YI                                          100000000000000000000039800+0000011+MECHAN       000000590000000003620500000000675
002350          5052498490127     MI WANG (OT: EVERYTIME YOU GO AWAY)     D HALL/WEN JING YI                                          100000000000000000000052100+0000017+MECHAN       000000590000000003063300000000675
002378          7599266562        101 EASTBOUND                           NATHAN EAST/MARCEL EAST                                     050000000000000000000010900+0000006+MECHAN       000000590000000003620500000000675
002378          9362466612        101 EASTBOUND                           NATHAN EAST/MARCEL EAST                                     050000000000000000000012400+0000005+MECHAN       000000880000000004949800000000675
002404          0090317785523     GAN QING SHI FOU JIAO LIU               NIU DA KE/CHEN JIA LI                                       050000000000000000000016500+0000007+MECHAN       000000700000000004725000000000675
002445          5052498589821     MENG JING (OT: U NEVER KNOW HOW MUCH I LOK YOON KHIZ/ZHENG GUO JIANG                                100000000000000000000009700+0000001+MECHAN       000001430000000009652500000000675
002464          5052498414529     DU JIAO XI (OT: SOMETHING STUPID)       LIN ZHEN QIANG                                              100000000000000000000165900+0000050+MECHAN       000000590000000003318600000000675
002580          510119759         WEI YU PU BA LI                         LUN YONG LIANG/ZHOU LI MAO                                  100000000000000000000153500+0000117+MECHAN       000001030000000001311900000000675
002581          5052498410828     CU YI                                   BILLY LIVESY/LIN MIN CONG                                   100000000000000000000146000+0000044+MECHAN       000000590000000003318600000000675
002581          5053105003426     CU YI                                   BILLY LIVESY/LIN MIN CONG                                   100000000000000000000099000+0000011+MECHAN       000001600000000008999600000000675
002617          5052498490424     SHAN DIAN                               CHRIS BABIDA/ZHENG GUO JIANG                                100000000000000000000144800+0000020+MECHAN       000000590000000007240600000000675
002645          5046685592        ZAI HUI SHOU                            CHEN LE RONG/LU GUAN TING/PAN WEI YUAN                      100000000000000000000081700+0000044+MECHAN       000000880000000001856300000000675
002720          5052498414123     YAO BAI XIN WO (OT:THIS PERFECT PLACE)  LIN ZHEN QIANG/TONY CAREY                                   100000000000000000000039800+0000011+MECHAN       000000590000000003620500000000675
002720          5101139712        YAO BAI XIN WO (OT:THIS PERFECT PLACE)  LIN ZHEN QIANG/TONY CAREY                                   100000000000000000000037300+0000018+MECHAN       000000460000000002070100000000675
002786          5053105112029     DIAN DIAN ZHUI YI                       LI ZONG SHENG/PAN WEI YUAN                                  100000000000000000001041200+0000366+MECHAN       000000590000000002844700000000675
002863          3984263132        JIN XIAO DUO ZHEN ZHONG                 FENG FENG SAN/WANG FU LING/ZHENG GUO JIANG                  100000000000000000000206500+0000161+MECHAN       000000570000000001282400000000675
002863          3984291562        JIN XIAO DUO ZHEN ZHONG                 FENG FENG SAN/WANG FU LING/ZHENG GUO JIANG                  100000000000000000000130100+0000092+MECHAN       000000444600000001414500000000700
002863          5046619032        JIN XIAO DUO ZHEN ZHONG                 FENG FENG SAN/WANG FU LING/ZHENG GUO JIANG                  100000000000000000000207200+0000105+MECHAN       000000760000000001973000000000675
002863          5051865183822     JIN XIAO DUO ZHEN ZHONG                 FENG FENG SAN/WANG FU LING/ZHENG GUO JIANG                  100000000000000000000448900+0000245+MECHAN       000001140000000001832200000000675
002863          5051865609421     JIN XIAO DUO ZHEN ZHONG                 FENG FENG SAN/WANG FU LING/ZHENG GUO JIANG                  100000000000000000000816500+0000395+MECHAN       000000980000000002067200000000675
002863          5052498414024     JIN XIAO DUO ZHEN ZHONG                 FENG FENG SAN/WANG FU LING/ZHENG GUO JIANG                  100000000000000000000484500+0000146+MECHAN       000000590000000003318600000000675
002863          5052498488827     JIN XIAO DUO ZHEN ZHONG                 FENG FENG SAN/WANG FU LING/ZHENG GUO JIANG                  100000000000000000000147000+0000147+MECHAN       000001220000000001000000000000675
002863          5052498562671     JIN XIAO DUO ZHEN ZHONG                 FENG FENG SAN/WANG FU LING/ZHENG GUO JIANG                  100000000000000000000008000+0000001+MECHAN       000001190000000008032500000000675
002863          5101139672        JIN XIAO DUO ZHEN ZHONG                 FENG FENG SAN/WANG FU LING/ZHENG GUO JIANG                  100000000000000000000627100+0000489+MECHAN       000000570000000001282400000000675
002863          510119726         JIN XIAO DUO ZHEN ZHONG                 FENG FENG SAN/WANG FU LING/ZHENG GUO JIANG                  100000000000000000000934100+0000383+MECHAN       000001030000000002438900000000675
002941          5051011972720     LING SHI SHI FEN                        GEORGE LAM/LIN ZHEN QIANG                                   100000000000000000000556100+0000228+MECHAN       000001030000000002438900000000675
002941          5051011972829     LING SHI SHI FEN                        GEORGE LAM/LIN ZHEN QIANG                                   100000000000000000000282200+0000115+MECHAN       000001030000000002454200000000675
002941          5051442268225     LING SHI SHI FEN                        GEORGE LAM/LIN ZHEN QIANG                                   100000000000000000000001300-0000001-MECHAN       000001880000000001269000000000675
002941          5051865609421     LING SHI SHI FEN                        GEORGE LAM/LIN ZHEN QIANG                                   100000000000000000000816500+0000395+MECHAN       000000980000000002067200000000675
002941          5052498441020     LING SHI SHI FEN                        GEORGE LAM/LIN ZHEN QIANG                                   100000000000000000000339000+0000339+MECHAN       000001310000000001000000000000675
002941          5052498564927     LING SHI SHI FEN                        GEORGE LAM/LIN ZHEN QIANG                                   100000000000000000000089600+0000013+MECHAN       000001430000000006894800000000675
002941          5052498712328     LING SHI SHI FEN                        GEORGE LAM/LIN ZHEN QIANG                                   100000000000000000000894000+0000894+MECHAN       000001310000000001000000000000675
002941          5052498757220     LING SHI SHI FEN                        GEORGE LAM/LIN ZHEN QIANG                                   100000000000000000000005400+0000001+MECHAN       000001430000000005362900000000675
002941          5053105464821     LING SHI SHI FEN                        GEORGE LAM/LIN ZHEN QIANG                                   100000000000000000000482000+0000482+MECHAN       000001310000000001000000000000675
002941          5101139652        LING SHI SHI FEN                        GEORGE LAM/LIN ZHEN QIANG                                   100000000000000000000110600+0000086+MECHAN       000000570000000001286200000000675
002947          5053105256112     TONG NI TONG WO                         HUANG ZHAN                                                  100000000000000000001841300+0000286+MECHAN       000001240000000006438200000000675
002973          5101139772        DU ZUO KA FEI SHI                       MIEKO NISHIJIMA/TANG ZHENG CHUAN                            100000000000000000000002100+0000001+MECHAN       000000460000000002070100000000675
002991          5052498620227     BU NENG TI DAI NI                       XU GUAN JIE                                                 100000000000000000000251200+0000082+MECHAN       000000590000000003063300000000675
002991          5101139782        BU NENG TI DAI NI                       XU GUAN JIE                                                 100000000000000000000066700+0000052+MECHAN       000000570000000001282400000000675
003061          5052498490424     HUA CHU CAI HONG                        ZHENG GUO JIANG/GU JIA HUI                                  100000000000000000000072400+0000020+MECHAN       000000590000000003620500000000675
003061          5052498562572     HUA CHU CAI HONG                        ZHENG GUO JIANG/GU JIA HUI                                  100000000000000000000008000+0000001+MECHAN       000001190000000008032500000000675
003061          5101139672        HUA CHU CAI HONG                        ZHENG GUO JIANG/GU JIA HUI                                  100000000000000000000627100+0000489+MECHAN       000000570000000001282400000000675
003061          510119726         HUA CHU CAI HONG                        ZHENG GUO JIANG/GU JIA HUI                                  100000000000000000000467100+0000383+MECHAN       000001030000000001219500000000675
003123          5051865451228     MENG XING SHI FEN %%%                   LI ZONG SHENG                                               100000000000000000001742000+0001742+MECHAN       000001470000000001000000000000675
003205          5051011068829     NAN WANG NI                             XU GUAN JIE                                                 100000000000000000000014300+0000002+MECHAN       000001690000000007129700000000675
003205          5052498441020     NAN WANG NI                             XU GUAN JIE                                                 100000000000000000000339000+0000339+MECHAN       000001310000000001000000000000675
003205          5101139732        NAN WANG NI                             XU GUAN JIE                                                 100000000000000000000100000+0000078+MECHAN       000000570000000001282400000000675
003205          510119759         NAN WANG NI                             XU GUAN JIE                                                 100000000000000000000153500+0000117+MECHAN       000001030000000001311900000000675
003214          5052498744923     JUE LIE BIAN YUAN                       TAI JI/YIN KUI                                              100000000000000000000070500+0000023+MECHAN       000000590000000003063300000000675
003214          5101139682        JUE LIE BIAN YUAN                       TAI JI/YIN KUI                                              100000000000000000000110300+0000086+MECHAN       000000570000000001282400000000675
003325          5052498469529     REN QU FANG KONG                        CHEN SHAO QI/LU GUO LIANG                                   100000000000000000000249200+0000031+MECHAN       000001310000000008038700000000675
003348          5052498742820     GEI WO BA                               T KATES/F D'ADESSANDRO/LIN ZHEN QIANG                       100000000000000000000069700+0000028+MECHAN       000000590000000002489100000000675
003348          5053105647859     GEI WO BA                               T KATES/F D'ADESSANDRO/LIN ZHEN QIANG                       100000000000000000001122300+0000155+MECHAN       000000590000000007240600000000675
003348          5101139692        GEI WO BA                               T KATES/F D'ADESSANDRO/LIN ZHEN QIANG                       100000000000000000000034600+0000027+MECHAN       000000570000000001282400000000675
003442          5052498469529     MEI YI GE MENG (OT:XIN LI DE HUO)       ZHENG GUO JIANG/WANG WEN QING                               100000000000000000000249200+0000031+MECHAN       000001310000000008038700000000675
003541          5052498589821     HUI SE YUAN QU                          CHEN FEI LI/ZHENG GUO JIANG                                 100000000000000000000009700+0000001+MECHAN       000001430000000009652500000000675
003549          0090317619026     WAN FENG                                HUANG ZHAN                                                  100000000000000000000030100+0000007+MECHAN       000000700000000004295500000000675
003549          0745099648824     WAN FENG                                HUANG ZHAN                                                  100000000000000000000163800+0000052+MECHAN       000000700000000003150200000000675
003549          5051011972829     WAN FENG                                HUANG ZHAN                                                  100000000000000000000280500+0000115+MECHAN       000001030000000002438900000000675
003549          5051865451228     WAN FENG                                HUANG ZHAN                                                  100000000000000000001742000+0001742+MECHAN       000001470000000001000000000000675
003549          5051865913023     WAN FENG                                HUANG ZHAN                                                  100000000000000000000043200+0000033+MECHAN       000000930000000001307600000000675
003549          5052498434428     WAN FENG                                HUANG ZHAN                                                  100000000000000000000199100+0000025+MECHAN       000000590000000007965000000000675
003549          5053105464821     WAN FENG                                HUANG ZHAN                                                  100000000000000000000482000+0000482+MECHAN       000001310000000001000000000000675
003549          5101139652        WAN FENG                                HUANG ZHAN                                                  100000000000000000000110300+0000086+MECHAN       000000570000000001282400000000675
003567          5046652062        AN NI                                   WANG JIE/CHEN LE RONG/PAN WEI YUAN                          050000000000000000000020700+0000014+MECHAN       000000700000000002953100000000675
003567          5051865451228     AN NI                                   WANG JIE/CHEN LE RONG/PAN WEI YUAN                          050000000000000000000871000+0001742+MECHAN       000001470000000001000000000000675
003567          5052498589524     AN NI                                   WANG JIE/CHEN LE RONG/PAN WEI YUAN                          050000000000000000000082000+0000017+MECHAN       000001430000000009652500000000675
003567          510119778         AN NI                                   WANG JIE/CHEN LE RONG/PAN WEI YUAN                          050000000000000000000242700+0000199+MECHAN       000001030000000002438900000000675
003567          8573849802        AN NI                                   WANG JIE/CHEN LE RONG/PAN WEI YUAN                          050000000000000000000041200+0000032+MECHAN       000001030000000002575200000000675
003567          9031779782        AN NI                                   WANG JIE/CHEN LE RONG/PAN WEI YUAN                          050000000000000000000056700+0000024+MECHAN       000000700000000004725000000000675
003614          5051011068829     SHAO                                    LUN YONG LIANG/LIN ZHEN QIANG                               100000000000000000000014300+0000002+MECHAN       000001690000000007129700000000675
003614          5051865997528     SHAO                                    LUN YONG LIANG/LIN ZHEN QIANG                               100000000000000000000180000+0000180+MECHAN       000001310000000001000000000000675
003614          5101139732        SHAO                                    LUN YONG LIANG/LIN ZHEN QIANG                               100000000000000000000100000+0000078+MECHAN       000000570000000001282400000000675
003614          510119759         SHAO                                    LUN YONG LIANG/LIN ZHEN QIANG                               100000000000000000000153500+0000117+MECHAN       000001030000000001311900000000675
003639          5051865913023     WAN WAN DE YUE LIANG                    PAN WEI YUAN/LI HAI YING                                    100000000000000000000043200+0000033+MECHAN       000000930000000001307600000000675
003639          5052498514625     WAN WAN DE YUE LIANG                    PAN WEI YUAN/LI HAI YING                                    100000000000000000000073500+0000024+MECHAN       000000590000000003063300000000675
003639          5101139702        WAN WAN DE YUE LIANG                    PAN WEI YUAN/LI HAI YING                                    100000000000000000000060300+0000047+MECHAN       000000570000000001282400000000675
003956          5052498490127     XIN SHANG DUO JI TANG(OT:ZHANG SAN DE GEZHANG ZI SHI/PAN WEI YUAN                                   100000000000000000000052100+0000017+MECHAN       000000590000000003063300000000675
004005          0075597961058     WHERE DO YOU START                      J MANDEL/A  BERGMAN/M BERGMAN                               100000000000000000000102600+0000019+MECHAN       000000880000000005400100000000675
004058          5046718822        TAKE MY BREATH AWAY %%%                 GIORGIO MORODER/TOM WHITLOCK                                075000000000000000000013400+0000006+MECHAN       000000880000000002970000000000675
004089          3984263132        DENG                                    CHEN BAI QIANG/ZHENG GUO JIANG                              100000000000000000000207100+0000161+MECHAN       000000570000000001286200000000675
004089          3984291562        DENG                                    CHEN BAI QIANG/ZHENG GUO JIANG                              100000000000000000000130100+0000092+MECHAN       000000444600000001414500000000700
004089          5046619032        DENG                                    CHEN BAI QIANG/ZHENG GUO JIANG                              100000000000000000000207400+0000105+MECHAN       000000760000000001975100000000675
004089          5051865183822     DENG                                    CHEN BAI QIANG/ZHENG GUO JIANG                              100000000000000000000448900+0000245+MECHAN       000001140000000001832200000000675
004089          5052498414024     DENG                                    CHEN BAI QIANG/ZHENG GUO JIANG                              100000000000000000000484700+0000146+MECHAN       000000590000000003320200000000675
004089          5052498562671     DENG                                    CHEN BAI QIANG/ZHENG GUO JIANG                              100000000000000000000008000+0000001+MECHAN       000001190000000008032500000000675
004089          5053105642311     DENG                                    CHEN BAI QIANG/ZHENG GUO JIANG                              100000000000000000004950400+0000828+MECHAN       000001240000000005978700000000675
004089          5101139672        DENG                                    CHEN BAI QIANG/ZHENG GUO JIANG                              100000000000000000000627100+0000489+MECHAN       000000570000000001282400000000675
004089          510119726         DENG                                    CHEN BAI QIANG/ZHENG GUO JIANG                              100000000000000000001401200+0000383+MECHAN       000001030000000003658400000000675
004394          5052498414123     JIA MIAN JU (OT: COIN LAUNDRY BLUES)    TOSHI SUMIKAWA/TOSHIRO MASUDA/Z G JIANG                     100000000000000000000039800+0000011+MECHAN       000000590000000003620500000000675
004394          5052498490127     JIA MIAN JU (OT: COIN LAUNDRY BLUES)    TOSHI SUMIKAWA/TOSHIRO MASUDA/Z G JIANG                     100000000000000000000052100+0000017+MECHAN       000000590000000003063300000000675
004394          5101139712        JIA MIAN JU (OT: COIN LAUNDRY BLUES)    TOSHI SUMIKAWA/TOSHIRO MASUDA/Z G JIANG                     100000000000000000000037300+0000018+MECHAN       000000460000000002070100000000675
004395          5053105002627     MI WANG DU SHI                          E YAZAW/K NISHIOKA/J BETTIS/LIU ZHUO HUI                    100000000000000000000012000+0000001+MECHAN       000001600000000011999900000000675
004447          5051011972829     HAI PANG DU CHANG  (OT: LA ISLA BONITA) CICCONE/LEONARD/GAITSCH/LIN ZHEN QIANG                      060000000000000000000084100+0000115+MECHAN       000001030000000001219500000000675
004447          5051865997528     HAI PANG DU CHANG  (OT: LA ISLA BONITA) CICCONE/LEONARD/GAITSCH/LIN ZHEN QIANG                      060000000000000000000108000+0000180+MECHAN       000001310000000001000000000000675
004447          5052498757220     HAI PANG DU CHANG  (OT: LA ISLA BONITA) CICCONE/LEONARD/GAITSCH/LIN ZHEN QIANG                      060000000000000000000003200+0000001+MECHAN       000001430000000005362900000000675
004447          5053105003020     HAI PANG DU CHANG  (OT: LA ISLA BONITA) CICCONE/LEONARD/GAITSCH/LIN ZHEN QIANG                      060000000000000000000054800+0000011+MECHAN       000001600000000008307400000000675
004447          5053105464821     HAI PANG DU CHANG  (OT: LA ISLA BONITA) CICCONE/LEONARD/GAITSCH/LIN ZHEN QIANG                      060000000000000000000289200+0000482+MECHAN       000001310000000001000000000000675
004477          5052498742820     SHEN AI DE NI                           PAN WEI YUAN/LAI JIAN CONG                                  100000000000000000000069700+0000028+MECHAN       000000590000000002489100000000675
004477          5053105647859     SHEN AI DE NI                           PAN WEI YUAN/LAI JIAN CONG                                  100000000000000000000561200+0000155+MECHAN       000000590000000003620500000000675
004477          5101139692        SHEN AI DE NI                           PAN WEI YUAN/LAI JIAN CONG                                  100000000000000000000034600+0000027+MECHAN       000000570000000001282400000000675
004479          5050467659520     HONG CHEN (OT: JI DU HUA LUO SHI)       TRADITIONAL/PAN WEI YUAN                                    050000000000000000000036900+0000011+MECHAN       000001690000000006716700000000675
004479          5051011972829     HONG CHEN (OT: JI DU HUA LUO SHI)       TRADITIONAL/PAN WEI YUAN                                    050000000000000000000070100+0000115+MECHAN       000001030000000001219500000000675
004479          5052498500628     HONG CHEN (OT: JI DU HUA LUO SHI)       TRADITIONAL/PAN WEI YUAN                                    050000000000000000000007200+0000004+MECHAN       000000590000000003620500000000675
004479          5053105464821     HONG CHEN (OT: JI DU HUA LUO SHI)       TRADITIONAL/PAN WEI YUAN                                    050000000000000000000241000+0000482+MECHAN       000001310000000001000000000000675
004479          5101139652        HONG CHEN (OT: JI DU HUA LUO SHI)       TRADITIONAL/PAN WEI YUAN                                    050000000000000000000055100+0000086+MECHAN       000000570000000001282400000000675
004497          3984263132        ZHAI XING (84-85 JIN DU ZHU TI QU)      LIN ZHEN QIANG/GU JIA HUI                                   100000000000000000000206500+0000161+MECHAN       000000570000000001282400000000675
004497          5051865913023     ZHAI XING (84-85 JIN DU ZHU TI QU)      LIN ZHEN QIANG/GU JIA HUI                                   100000000000000000000043200+0000033+MECHAN       000000930000000001307600000000675
004497          5052498414024     ZHAI XING (84-85 JIN DU ZHU TI QU)      LIN ZHEN QIANG/GU JIA HUI                                   100000000000000000000484500+0000146+MECHAN       000000590000000003318600000000675
004497          5052498490424     ZHAI XING (84-85 JIN DU ZHU TI QU)      LIN ZHEN QIANG/GU JIA HUI                                   100000000000000000000072400+0000020+MECHAN       000000590000000003620500000000675
004497          5101139672        ZHAI XING (84-85 JIN DU ZHU TI QU)      LIN ZHEN QIANG/GU JIA HUI                                   100000000000000000000627100+0000489+MECHAN       000000570000000001282400000000675
004497          510119726         ZHAI XING (84-85 JIN DU ZHU TI QU)      LIN ZHEN QIANG/GU JIA HUI                                   100000000000000000000934100+0000383+MECHAN       000001030000000002438900000000675
004505          5051865913023     TIE TA LING YUN                         XU GUAN JIE/XU GUAN WEN                                     100000000000000000000043200+0000033+MECHAN       000000930000000001307600000000675
004505          5052498441020     TIE TA LING YUN                         XU GUAN JIE/XU GUAN WEN                                     100000000000000000000339000+0000339+MECHAN       000001310000000001000000000000675
004506          5052498441020     BEI JIU DANG GE                         XU GUAN JIE/LI BI DE                                        100000000000000000000339000+0000339+MECHAN       000001310000000001000000000000675
004520          5052498744923     CHEN MO FENG BAO                        TAI JI/PAN WEI YUAN                                         100000000000000000000070500+0000023+MECHAN       000000590000000003063300000000675
004520          5053105647620     CHEN MO FENG BAO                        TAI JI/PAN WEI YUAN                                         100000000000000000001062000+0000160+MECHAN       000000590000000006637600000000675
004520          5101139682        CHEN MO FENG BAO                        TAI JI/PAN WEI YUAN                                         100000000000000000000110300+0000086+MECHAN       000000570000000001282400000000675
004685          3984263142        SHI XIANG                               GEORGE LAM/LIN MIN CONG                                     100000000000000000000151300+0000118+MECHAN       000000570000000001282400000000675
004685          5050467543324     SHI XIANG                               GEORGE LAM/LIN MIN CONG                                     100000000000000000000255000+0000038+MECHAN       000001690000000006709900000000675
004685          5051011972720     SHI XIANG                               GEORGE LAM/LIN MIN CONG                                     100000000000000000000556100+0000228+MECHAN       000001030000000002438900000000675
004685          5051442268225     SHI XIANG                               GEORGE LAM/LIN MIN CONG                                     100000000000000000000001300-0000001-MECHAN       000001880000000001269000000000675
004685          5052498414529     SHI XIANG                               GEORGE LAM/LIN MIN CONG                                     100000000000000000000165900+0000050+MECHAN       000000590000000003318600000000675
004685          5052498441020     SHI XIANG                               GEORGE LAM/LIN MIN CONG                                     100000000000000000000339000+0000339+MECHAN       000001310000000001000000000000675
004685          5052498564927     SHI XIANG                               GEORGE LAM/LIN MIN CONG                                     100000000000000000000089600+0000013+MECHAN       000001430000000006894800000000675
004685          5052498712328     SHI XIANG                               GEORGE LAM/LIN MIN CONG                                     100000000000000000000894000+0000894+MECHAN       000001310000000001000000000000675
004685          5101139662        SHI XIANG                               GEORGE LAM/LIN MIN CONG                                     100000000000000000000301400+0000235+MECHAN       000000570000000001282400000000675
004740          5052498589524     SHUO SHENG ZHEN ZHONG                   PAN WEI YUAN/WANG WEN QING/HONG GUANG DA                    100000000000000000000164100+0000017+MECHAN       000001430000000009652500000000675
004740          9031779782        SHUO SHENG ZHEN ZHONG                   PAN WEI YUAN/WANG WEN QING/HONG GUANG DA                    100000000000000000000113400+0000024+MECHAN       000000700000000004725000000000675
004771          5050467543324     RENG RAN JI DE GE YI CI                 GEORGE LAM/JAMES WONG                                       100000000000000000000255000+0000038+MECHAN       000001690000000006709900000000675
004771          5051011972720     RENG RAN JI DE GE YI CI                 GEORGE LAM/JAMES WONG                                       100000000000000000000556100+0000228+MECHAN       000001030000000002438900000000675
004771          5051865609421     RENG RAN JI DE GE YI CI                 GEORGE LAM/JAMES WONG                                       100000000000000000000816500+0000395+MECHAN       000000980000000002067200000000675
004771          5052498441020     RENG RAN JI DE GE YI CI                 GEORGE LAM/JAMES WONG                                       100000000000000000000339000+0000339+MECHAN       000001310000000001000000000000675
004771          5052498490523     RENG RAN JI DE GE YI CI                 GEORGE LAM/JAMES WONG                                       100000000000000000000073000+0000022+MECHAN       000000590000000003318600000000675
004771          5052498562770     RENG RAN JI DE GE YI CI                 GEORGE LAM/JAMES WONG                                       100000000000000000000007700+0000001+MECHAN       000001140000000007695000000000675
004771          5052498564927     RENG RAN JI DE GE YI CI                 GEORGE LAM/JAMES WONG                                       100000000000000000000089600+0000013+MECHAN       000001430000000006894800000000675
004771          5052498712328     RENG RAN JI DE GE YI CI                 GEORGE LAM/JAMES WONG                                       100000000000000000000894000+0000894+MECHAN       000001310000000001000000000000675
004771          5101139752        RENG RAN JI DE GE YI CI                 GEORGE LAM/JAMES WONG                                       100000000000000000000010400+0000005+MECHAN       000000460000000002070100000000675
004782          3984263082        WEI LE AI MENG YI SHENG (TO DREAM A LIFEXU GUAN JIE/CHEN LE RONG                                    100000000000000000000132100+0000103+MECHAN       000000570000000001282400000000675
004782          5046652062        WEI LE AI MENG YI SHENG (TO DREAM A LIFEXU GUAN JIE/CHEN LE RONG                                    100000000000000000000041300+0000014+MECHAN       000000700000000002953100000000675
004782          5101140222        WEI LE AI MENG YI SHENG (TO DREAM A LIFEXU GUAN JIE/CHEN LE RONG                                    100000000000000000000052600+0000041+MECHAN       000000570000000001282400000000675
004782          510119778         WEI LE AI MENG YI SHENG (TO DREAM A LIFEXU GUAN JIE/CHEN LE RONG                                    100000000000000000000485300+0000199+MECHAN       000001030000000002438900000000675
004782          8573849802        WEI LE AI MENG YI SHENG (TO DREAM A LIFEXU GUAN JIE/CHEN LE RONG                                    100000000000000000000082400+0000032+MECHAN       000001030000000002575200000000675
004782          9031779682        WEI LE AI MENG YI SHENG (TO DREAM A LIFEXU GUAN JIE/CHEN LE RONG                                    100000000000000000000037800+0000008+MECHAN       000000700000000004725000000000675
004883          5053105112029     JIU FENG LU                             LIUN MIN YI/LU ZHI SHENG                                    100000000000000000001041200+0000366+MECHAN       000000590000000002844700000000675
004883          5101139762        JIU FENG LU                             LIUN MIN YI/LU ZHI SHENG                                    100000000000000000000035200+0000017+MECHAN       000000460000000002070100000000675
004931          5052498712328     WO YAO ZUO TIAN YA (OT: TALL PINE TREE) YARROW PETER/ZHENG GUO JIANG                                100000000000000000000894000+0000894+MECHAN       000001310000000001000000000000675
005040          0090317786025     GEI AI                                  LIAO YING RU/LOU WEN ZHONG                                  100000000000000000000023600+0000005+MECHAN       000000700000000004725000000000675
005068          5053105112029     JIN CAO JIAO HUA                        FANG ZHI/ZHOU CONG                                          100000000000000000001041200+0000366+MECHAN       000000590000000002844700000000675
005244          5052498448227     GU YAN                                  ZHENG GUO JIANG/ZHOU QI SHENG                               100000000000000000000036800+0000005+MECHAN       000001310000000007368500000000675
005244          5052498757220     GU YAN                                  ZHENG GUO JIANG/ZHOU QI SHENG                               100000000000000000000005400+0000001+MECHAN       000001430000000005362900000000675
005244          510119726         GU YAN                                  ZHENG GUO JIANG/ZHOU QI SHENG                               100000000000000000000467100+0000383+MECHAN       000001030000000001219500000000675
005330          5046652062        YI CHANG YOU XI YI CHANG MENG           WANG WEN QING                                               100000000000000000000041300+0000014+MECHAN       000000700000000002953100000000675
005330          5051865451228     YI CHANG YOU XI YI CHANG MENG           WANG WEN QING                                               100000000000000000001742000+0001742+MECHAN       000001470000000001000000000000675
005330          5052498589524     YI CHANG YOU XI YI CHANG MENG           WANG WEN QING                                               100000000000000000000328200+0000017+MECHAN       000001430000000019305000000000675
005330          5101140222        YI CHANG YOU XI YI CHANG MENG           WANG WEN QING                                               100000000000000000000052600+0000041+MECHAN       000000570000000001282400000000675
005330          510119778         YI CHANG YOU XI YI CHANG MENG           WANG WEN QING                                               100000000000000000000242700+0000199+MECHAN       000001030000000001219500000000675
005330          8573849802        YI CHANG YOU XI YI CHANG MENG           WANG WEN QING                                               100000000000000000000247200+0000032+MECHAN       000001030000000007725600000000675
005330          9031779782        YI CHANG YOU XI YI CHANG MENG           WANG WEN QING                                               100000000000000000000226800+0000024+MECHAN       000000700000000009450000000000675
005360          5052498619221     ZHI YIN AI NI                           XU RI QIN/LIN XI                                            100000000000000000000115500+0000029+MECHAN       000000590000000003982500000000675
005360          5053105642311     ZHI YIN AI NI                           XU RI QIN/LIN XI                                            100000000000000000004950400+0000828+MECHAN       000001240000000005978700000000675
005361          5052498619221     MO SHI JI FENG SAO                      XU RI QIN/ZHOU LI MAO                                       100000000000000000000115500+0000029+MECHAN       000000590000000003982500000000675
005473          3984291562        JI MO DE GAN JUE                        CHEN BAI QIANG/XIANG XUE HUAI                               100000000000000000000130100+0000092+MECHAN       000000444600000001414500000000700
005480          5051011068829     QIAN CHEN                               DICK LEE/ZHOU LI MAO/ZHANG FANG LU                          100000000000000000000014300+0000002+MECHAN       000001690000000007129700000000675
005480          5052498449422     QIAN CHEN                               DICK LEE/ZHOU LI MAO/ZHANG FANG LU                          100000000000000000000117900+0000016+MECHAN       000001310000000007368500000000675
005480          510119759         QIAN CHEN                               DICK LEE/ZHOU LI MAO/ZHANG FANG LU                          100000000000000000000307000+0000117+MECHAN       000001030000000002623900000000675
005486          5051865997528     QIAN CAO YAO JI                         ZHOU QI SHENG/LIN ZHEN QIANG                                100000000000000000000180000+0000180+MECHAN       000001310000000001000000000000675
005487          5052498712328     TONG XING WAN LI (OT: MAKE ME LOSE CONTRE CARMEN/D PITCHFORD/CHEN SHAO QI                           050000000000000000000447000+0000894+MECHAN       000001310000000001000000000000675
005489          5051011972720     HUAI NIAN ZHE SHEN SHEN YI WEN          GEORGE LAM/XIAO MEI/LAING MEI MEI                           100000000000000000000278000+0000228+MECHAN       000001030000000001219500000000675
005489          5052498712328     HUAI NIAN ZHE SHEN SHEN YI WEN          GEORGE LAM/XIAO MEI/LAING MEI MEI                           100000000000000000000894000+0000894+MECHAN       000001310000000001000000000000675
005501          2292541019        DUO YE DUO BU LIAO                      HUANG ZHAN                                                  100000000000000000000060800+0000015+MECHAN       000000600000000004050000000000675
005501          5052498434329     DUO YE DUO BU LIAO                      HUANG ZHAN                                                  100000000000000000000027900+0000007+MECHAN       000000590000000003982500000000675
005501          5053105464821     DUO YE DUO BU LIAO                      HUANG ZHAN                                                  100000000000000000000482000+0000482+MECHAN       000001310000000001000000000000675
005531          5053105003020     YI WANG LIAO                            LIN MIN YI/PAN YUAN LIANG                                   100000000000000000000091400+0000011+MECHAN       000001600000000008307400000000675
005531          5053105256112     YI WANG LIAO                            LIN MIN YI/PAN YUAN LIANG                                   100000000000000000001841300+0000286+MECHAN       000001240000000006438200000000675
005531          5053105464821     YI WANG LIAO                            LIN MIN YI/PAN YUAN LIANG                                   100000000000000000000482000+0000482+MECHAN       000001310000000001000000000000675
005532          5053105464821     WO ZOU WO LU                            LIN MIN YI/ZHENG GUO JIANG                                  100000000000000000000482000+0000482+MECHAN       000001310000000001000000000000675
005542          5052498414321     CHONG FENG (OT: M A S H)                JOHNNY MANDEL/ALTMAN MIKE/LIN ZHEN QIANG                    100000000000000000000013300+0000004+MECHAN       000000590000000003318600000000675
005572          5051011972829     ZHEN ZHONG                              PAN WEI YUAN/WANG WEN QING                                  100000000000000000000140200+0000115+MECHAN       000001030000000001219500000000675
005572          5053105003020     ZHEN ZHONG                              PAN WEI YUAN/WANG WEN QING                                  100000000000000000000091400+0000011+MECHAN       000001600000000008311700000000675
005572          5053105464821     ZHEN ZHONG                              PAN WEI YUAN/WANG WEN QING                                  100000000000000000000482000+0000482+MECHAN       000001310000000001000000000000675
005572          5101139652        ZHEN ZHONG                              PAN WEI YUAN/WANG WEN QING                                  100000000000000000000110300+0000086+MECHAN       000000570000000001282400000000675
005576          5101139772        YE XU SHI SHI RU CI                     LIN ZHEN QIANG/YUAN ZHUO FAN                                100000000000000000000002100+0000001+MECHAN       000000460000000002070100000000675
005584          5052498441020     YE BAN QING SI YU                       XU GUAN JIE/LI BI DE                                        100000000000000000000339000+0000339+MECHAN       000001310000000001000000000000675
005584          5052498514625     YE BAN QING SI YU                       XU GUAN JIE/LI BI DE                                        100000000000000000000073500+0000024+MECHAN       000000590000000003063300000000675
005599          5051865913023     QUAN REN LEI GAO GE                     TAI JI/YIN KUI                                              100000000000000000000043200+0000033+MECHAN       000000930000000001307600000000675
005599          5051865997528     QUAN REN LEI GAO GE                     TAI JI/YIN KUI                                              100000000000000000000180000+0000180+MECHAN       000001310000000001000000000000675
005599          5052498744923     QUAN REN LEI GAO GE                     TAI JI/YIN KUI                                              100000000000000000000070500+0000023+MECHAN       000000590000000003063300000000675
005599          5101139682        QUAN REN LEI GAO GE                     TAI JI/YIN KUI                                              100000000000000000000110300+0000086+MECHAN       000000570000000001282400000000675
005622          5053105795628     ZHI YOU NI                              WANG JIE/CHEN LE RONG/LIN MU XI SAN LANG                    025000000000000000000224800+0000899+MECHAN       000001310000000001000000000000675
005622          8573849802        ZHI YOU NI                              WANG JIE/CHEN LE RONG/LIN MU XI SAN LANG                    025000000000000000000020600+0000032+MECHAN       000001030000000002575200000000675
005622          9031779732        ZHI YOU NI                              WANG JIE/CHEN LE RONG/LIN MU XI SAN LANG                    025000000000000000000005900+0000005+MECHAN       000000700000000004725000000000675
005733          5051442268225     CHENG JI SI HAN (OT: DSCHINGIS KHAN) %%%R SIEGEL/ZHENG GUO JIANG                                    050000000000000000000000600-0000001-MECHAN       000001880000000001269000000000675
005733          5051865997528     CHENG JI SI HAN (OT: DSCHINGIS KHAN) %%%R SIEGEL/ZHENG GUO JIANG                                    050000000000000000000090000+0000180+MECHAN       000001310000000001000000000000675
005733          5052498712328     CHENG JI SI HAN (OT: DSCHINGIS KHAN) %%%R SIEGEL/ZHENG GUO JIANG                                    050000000000000000000447000+0000894+MECHAN       000001310000000001000000000000675
005735          3984266542        CAI SHEN DAO                            XU GUAN JIE                                                 100000000000000000000112500+0000034+MECHAN       000000490000000003307500000000675
005735          5051865997528     CAI SHEN DAO                            XU GUAN JIE                                                 100000000000000000000180000+0000180+MECHAN       000001310000000001000000000000675
005735          5052498441020     CAI SHEN DAO                            XU GUAN JIE                                                 100000000000000000000339000+0000339+MECHAN       000001310000000001000000000000675
005804          9031779192        MI DI                                   SU LAI                                                      050000000000000000000008600+0000004+MECHAN       000000700000000004295500000000675
005858          0081227984694     4+20                                    STEPHEN STILLS                                              100000000000000000000004400+0000001+MECHAN       000000980000000004409600000000675
005858          0081227986452     4+20                                    STEPHEN STILLS                                              100000000000000000000003700+0000001+MECHAN       000000880000000003712500000000675
005858          7567804872        4+20                                    STEPHEN STILLS                                              100000000000000000000004600+0000002+MECHAN       000001270000000002317100000000675
005858          7567826492        4+20                                    STEPHEN STILLS                                              100000000000000000000029700+0000006+MECHAN       000000880000000004949800000000675
006013          3984263132        JI FENG                                 LIN ZHEN QIANG/BAO BI DA                                    100000000000000000000206500+0000161+MECHAN       000000570000000001282400000000675
006013          5052498414024     JI FENG                                 LIN ZHEN QIANG/BAO BI DA                                    100000000000000000000484500+0000146+MECHAN       000000590000000003318600000000675
006013          5101139672        JI FENG                                 LIN ZHEN QIANG/BAO BI DA                                    100000000000000000000627100+0000489+MECHAN       000000570000000001282400000000675
006013          510119726         JI FENG                                 LIN ZHEN QIANG/BAO BI DA                                    100000000000000000000467100+0000383+MECHAN       000001030000000001219500000000675
006047          5052498620326     WU GEN CAO                              HUANG QING YUAN/LU YONG QIANG                               100000000000000000000012300+0000004+MECHAN       000000590000000003063300000000675
006091          5051442781625     CHA CHA CHA %%%                         BALDONI/ROSELLINI/REITANO/BOIDO/REITANO                     050000000000000000000011600+0000014+MECHAN       000000880000000001650100000000675
006091          5051865533528     CHA CHA CHA %%%                         BALDONI/ROSELLINI/REITANO/BOIDO/REITANO                     050000000000000000000034900+0000040+MECHAN       000000880000000001747000000000675
006091          5051865600725     CHA CHA CHA %%%                         BALDONI/ROSELLINI/REITANO/BOIDO/REITANO                     050000000000000000000043500+0000084+MECHAN       000001380000000001034900000000675
006091          5051865997528     CHA CHA CHA %%%                         BALDONI/ROSELLINI/REITANO/BOIDO/REITANO                     050000000000000000000090000+0000180+MECHAN       000001310000000001000000000000675
006104          5052498410828     LING WO QING XIN ZHI YOU NI             GUO XIAO LIN/ZHENG GUO JIANG                                100000000000000000000146000+0000044+MECHAN       000000590000000003318600000000675
006104          5053105003426     LING WO QING XIN ZHI YOU NI             GUO XIAO LIN/ZHENG GUO JIANG                                100000000000000000000099000+0000011+MECHAN       000001600000000008999600000000675
006106          5053105003020     MING YUN WO CAO ZONG                    LUN YONG LIANG/LIN ZHEN QIANG                               100000000000000000000091400+0000011+MECHAN       000001600000000008307400000000675
006106          5053105464821     MING YUN WO CAO ZONG                    LUN YONG LIANG/LIN ZHEN QIANG                               100000000000000000000482000+0000482+MECHAN       000001310000000001000000000000675
006152          9031779732        MENG YU YU QI ZHI JIAN                  WANG WEN QING                                               100000000000000000000023600+0000005+MECHAN       000000700000000004725000000000675
006170          5053105464821     TAI ZAO HAI SHI TAI CHI                 PAN YUAN LANG/QIAN YOU LAN                                  100000000000000000000482000+0000482+MECHAN       000001310000000001000000000000675
006175          3984263082        GU SHI DE JIAO SE                       WANG WEN QING/ZHENG GUO JIANG/WANG JIE                      100000000000000000000132100+0000103+MECHAN       000000570000000001282400000000675
006175          5046652062        GU SHI DE JIAO SE                       WANG WEN QING/ZHENG GUO JIANG/WANG JIE                      100000000000000000000020700+0000014+MECHAN       000000700000000001476600000000675
006175          5050467655126     GU SHI DE JIAO SE                       WANG WEN QING/ZHENG GUO JIANG/WANG JIE                      100000000000000000000028500+0000004+MECHAN       000001690000000007129700000000675
006175          5052498469529     GU SHI DE JIAO SE                       WANG WEN QING/ZHENG GUO JIANG/WANG JIE                      100000000000000000000249200+0000031+MECHAN       000001310000000008037800000000675
006175          5052498589524     GU SHI DE JIAO SE                       WANG WEN QING/ZHENG GUO JIANG/WANG JIE                      100000000000000000000164100+0000017+MECHAN       000001430000000009652500000000675
006175          5052498757220     GU SHI DE JIAO SE                       WANG WEN QING/ZHENG GUO JIANG/WANG JIE                      100000000000000000000005400+0000001+MECHAN       000001430000000005362900000000675
006175          5101140222        GU SHI DE JIAO SE                       WANG WEN QING/ZHENG GUO JIANG/WANG JIE                      100000000000000000000052600+0000041+MECHAN       000000570000000001282400000000675
006175          510119778         GU SHI DE JIAO SE                       WANG WEN QING/ZHENG GUO JIANG/WANG JIE                      100000000000000000000485300+0000199+MECHAN       000001030000000002438900000000675
006175          8573849802        GU SHI DE JIAO SE                       WANG WEN QING/ZHENG GUO JIANG/WANG JIE                      100000000000000000000082400+0000032+MECHAN       000001030000000002575200000000675
006175          9031779782        GU SHI DE JIAO SE                       WANG WEN QING/ZHENG GUO JIANG/WANG JIE                      100000000000000000000113400+0000024+MECHAN       000000700000000004725000000000675
006196          5052498619221     GE ZHE LIAN GE                          CHEN BAI QIANG/LIN XI                                       100000000000000000000115500+0000029+MECHAN       000000590000000003982500000000675
006261          5052498514625     NI DE QIAN XIAO                         LU FANG/PAN WEI YUAN                                        100000000000000000000073500+0000024+MECHAN       000000590000000003063300000000675
006261          5101139702        NI DE QIAN XIAO                         LU FANG/PAN WEI YUAN                                        100000000000000000000060300+0000047+MECHAN       000000570000000001282400000000675
006264          5053105002627     NI SHI QING QI WO SHI YANG %%%          M BOSE/R GIAGIN/PAN YUAN LIANG                              020000000000000000000002400+0000001+MECHAN       000001600000000011999900000000675
006264          5101139712        NI SHI QING QI WO SHI YANG %%%          M BOSE/R GIAGIN/PAN YUAN LIANG                              020000000000000000000007500+0000018+MECHAN       000000460000000002070100000000675
006286          3984263082        JI FEN SHANG XIN JI FEN CHI             WANG WEN QING/PAN WEI YUAN                                  100000000000000000000132100+0000103+MECHAN       000000570000000001282400000000675
006286          5050467655126     JI FEN SHANG XIN JI FEN CHI             WANG WEN QING/PAN WEI YUAN                                  100000000000000000000028500+0000004+MECHAN       000001690000000007129700000000675
006286          5051865609421     JI FEN SHANG XIN JI FEN CHI             WANG WEN QING/PAN WEI YUAN                                  100000000000000000000816500+0000395+MECHAN       000000980000000002067200000000675
006286          5052498469529     JI FEN SHANG XIN JI FEN CHI             WANG WEN QING/PAN WEI YUAN                                  100000000000000000000249200+0000031+MECHAN       000001310000000008038700000000675
006286          5052498507429     JI FEN SHANG XIN JI FEN CHI             WANG WEN QING/PAN WEI YUAN                                  100000000000000000000251200+0000082+MECHAN       000000590000000003063300000000675
006286          510119778         JI FEN SHANG XIN JI FEN CHI             WANG WEN QING/PAN WEI YUAN                                  100000000000000000000488400+0000199+MECHAN       000001030000000002454200000000675
006289          0706301276921     ZHU FU (OT:YI DONG DE XIN)              PAN WEI YUAN/LIANG HONG ZHI                                 100000000000000000000211100+0000067+MECHAN       000000700000000003150200000000675
006289          5050467659520     ZHU FU (OT:YI DONG DE XIN)              PAN WEI YUAN/LIANG HONG ZHI                                 100000000000000000000073800+0000011+MECHAN       000001690000000006709900000000675
006289          5051011972829     ZHU FU (OT:YI DONG DE XIN)              PAN WEI YUAN/LIANG HONG ZHI                                 100000000000000000000140200+0000115+MECHAN       000001030000000001219500000000675
006289          5053105256112     ZHU FU (OT:YI DONG DE XIN)              PAN WEI YUAN/LIANG HONG ZHI                                 100000000000000000001842300+0000286+MECHAN       000001240000000006441600000000675
006289          5053105464821     ZHU FU (OT:YI DONG DE XIN)              PAN WEI YUAN/LIANG HONG ZHI                                 100000000000000000000482000+0000482+MECHAN       000001310000000001000000000000675
006289          5101139652        ZHU FU (OT:YI DONG DE XIN)              PAN WEI YUAN/LIANG HONG ZHI                                 100000000000000000000110300+0000086+MECHAN       000000570000000001282400000000675
006306          5052498441020     ZHI CHUAN                               XU GUAN JIE                                                 100000000000000000000339000+0000339+MECHAN       000001310000000001000000000000675
006318          5101139682        TIE HAN DE XIN                          TAI JI/YIN KUI                                              100000000000000000000110300+0000086+MECHAN       000000570000000001282400000000675
006361          5053105647521     ZHI ZU CHANG LE (E S VERSION)           LIANG QIU                                                   100000000000000000002636400+0000331+MECHAN       000000590000000007965000000000675
006427          7567824082        49 BYE BYES                             STEPHEN STILLS                                              100000000000000000000007500+0000002+MECHAN       000001270000000003727300000000675
006427          8122732902        49 BYE BYES                             STEPHEN STILLS                                              100000000000000000000021200+0000005+MECHAN       000000880000000004242900000000675
006427          8122765372        49 BYE BYES                             STEPHEN STILLS                                              100000000000000000000040600+0000013+MECHAN       000000880000000003126200000000675
006692          5046718822        PARADISE IN MY HEART                    DICK LEE/ZHOU LI MAO                                        100000000000000000000017800+0000006+MECHAN       000000880000000002970000000000675
006699          5052498488827     SI NIAN ZONG ZAI FEN SHOU HOU           YE JIA XIU                                                  100000000000000000000147000+0000147+MECHAN       000001220000000001000000000000675
006812          9031779732        CHEN MO PU FENG                         LIU YU RUI/ZHOU ZHI PING                                    100000000000000000000023600+0000005+MECHAN       000000700000000004725000000000675
006848          5052498589821     JI BU CHU DE XIN                        SHIIMA/PAN YUAN LIANG                                       100000000000000000000009700+0000001+MECHAN       000001430000000009652500000000675
006876          3984291562        WO AI BAI YUN                           CHEN BAI QIANG/TANG ZHENG CHUAN                             100000000000000000000092000+0000092+MECHAN       000000444600000001000000000000700
006876          5046619032        WO AI BAI YUN                           CHEN BAI QIANG/TANG ZHENG CHUAN                             100000000000000000000207200+0000105+MECHAN       000000760000000001973000000000675
006876          5053105640812     WO AI BAI YUN                           CHEN BAI QIANG/TANG ZHENG CHUAN                             100000000000000000006095900+0000874+MECHAN       000001240000000006974700000000675
006876          510119726         WO AI BAI YUN                           CHEN BAI QIANG/TANG ZHENG CHUAN                             100000000000000000000467100+0000383+MECHAN       000001030000000001219500000000675
006938          5052498744923     YAN QUAN                                LIU XIAN DE/PAN WEI YUAN                                    100000000000000000000070500+0000023+MECHAN       000000590000000003063300000000675
006977          5052498742820     YIN NI ZHUO MI                          ZHANG MEI XIAN/PETER LAI                                    100000000000000000000069700+0000028+MECHAN       000000590000000002489100000000675
006977          5053105647859     YIN NI ZHUO MI                          ZHANG MEI XIAN/PETER LAI                                    100000000000000000000561200+0000155+MECHAN       000000590000000003620500000000675
006977          5101139692        YIN NI ZHUO MI                          ZHANG MEI XIAN/PETER LAI                                    100000000000000000000034600+0000027+MECHAN       000000570000000001282400000000675
006978          5052498619221     QI ZAI CHAO CHAO MU MU                  LAI JIAN CONG/XIANG XUE HUAI                                100000000000000000000115500+0000029+MECHAN       000000590000000003982500000000675
007007          3984291562        LANG ZI XIN SHENG (RASCAL HEART)        XU GUAN JIE/LI BI DE                                        100000000000000000000130100+0000092+MECHAN       000000444600000001414500000000700
007007          5052498441020     LANG ZI XIN SHENG (RASCAL HEART)        XU GUAN JIE/LI BI DE                                        100000000000000000000339000+0000339+MECHAN       000001310000000001000000000000675
007032          5046652062        TA DE BEI YING                          WANG JIE                                                    100000000000000000000020700+0000014+MECHAN       000000700000000001476600000000675
007032          5101140222        TA DE BEI YING                          WANG JIE                                                    100000000000000000000052600+0000041+MECHAN       000000570000000001282400000000675
007032          510119778         TA DE BEI YING                          WANG JIE                                                    100000000000000000000242700+0000199+MECHAN       000001030000000001219500000000675
007032          8573849802        TA DE BEI YING                          WANG JIE                                                    100000000000000000000082400+0000032+MECHAN       000001030000000002575200000000675
007032          9031779732        TA DE BEI YING                          WANG JIE                                                    100000000000000000000023600+0000005+MECHAN       000000700000000004725000000000675
007078          0081227973995     5150                                    E VAN HALEN/A VAN HALEN/S HAGAR/ANTHONY                     100000000000000000000034900+0000015+MECHAN       000001000000000002327400000000675
007404          5053105647521     JIU HUAN RU MENG                        ZHONG SHAN DA SAN LIANG/PAN WEI YUAN                        100000000000000000002636400+0000331+MECHAN       000000590000000007965000000000675
007432          5052498410828     REN AI DE XIN                           LIN MIN CONG                                                050000000000000000000073000+0000044+MECHAN       000000590000000003318600000000675
007432          5053105003426     REN AI DE XIN                           LIN MIN CONG                                                050000000000000000000049500+0000011+MECHAN       000001600000000008999600000000675
007469          9031779732        NI SHI NI WO SHI WO                     WANG WEN QING                                               100000000000000000000023600+0000005+MECHAN       000000700000000004725000000000675
007496          5053105647859     AN QUAN DI AI                           CHEN SHAO QI/YANG ZHEN LONG                                 100000000000000000000561200+0000155+MECHAN       000000590000000003620500000000675
007496          5101139692        AN QUAN DI AI                           CHEN SHAO QI/YANG ZHEN LONG                                 100000000000000000000034600+0000027+MECHAN       000000570000000001282400000000675
007506          5052498514922     XING ZHI SUI PIAN                       PAN YUAN LIANG/LU GUAN TING                                 100000000000000000000122800+0000037+MECHAN       000000590000000003318600000000675
007506          5101139762        XING ZHI SUI PIAN                       PAN YUAN LIANG/LU GUAN TING                                 100000000000000000000035200+0000017+MECHAN       000000460000000002070100000000675
007527          5052498514922     LIAN AI YU GAO                          ZHENG GUO JIANG/CHEN BAI QIANG                              100000000000000000000122800+0000037+MECHAN       000000590000000003318600000000675
007527          5052498562671     LIAN AI YU GAO                          ZHENG GUO JIANG/CHEN BAI QIANG                              100000000000000000000008000+0000001+MECHAN       000001190000000008032500000000675
007527          5053105112029     LIAN AI YU GAO                          ZHENG GUO JIANG/CHEN BAI QIANG                              100000000000000000001041200+0000366+MECHAN       000000590000000002844700000000675
007527          5101139762        LIAN AI YU GAO                          ZHENG GUO JIANG/CHEN BAI QIANG                              100000000000000000000035200+0000017+MECHAN       000000460000000002070100000000675
007527          510119726         LIAN AI YU GAO                          ZHENG GUO JIANG/CHEN BAI QIANG                              100000000000000000000467100+0000383+MECHAN       000001030000000001219500000000675
007542          3984263142        RI LUO RI CHU                           GEORGE LAM/LIN ZHEN QIANG                                   100000000000000000000151300+0000118+MECHAN       000000570000000001282400000000675
007542          5050467543324     RI LUO RI CHU                           GEORGE LAM/LIN ZHEN QIANG                                   100000000000000000000255000+0000038+MECHAN       000001690000000006709900000000675
007542          5051011972720     RI LUO RI CHU                           GEORGE LAM/LIN ZHEN QIANG                                   100000000000000000000278000+0000228+MECHAN       000001030000000001219500000000675
007542          5051442268225     RI LUO RI CHU                           GEORGE LAM/LIN ZHEN QIANG                                   100000000000000000000001300-0000001-MECHAN       000001880000000001269000000000675
007542          5052498441020     RI LUO RI CHU                           GEORGE LAM/LIN ZHEN QIANG                                   100000000000000000000339000+0000339+MECHAN       000001310000000001000000000000675
007542          5052498712328     RI LUO RI CHU                           GEORGE LAM/LIN ZHEN QIANG                                   100000000000000000000894000+0000894+MECHAN       000001310000000001000000000000675
007542          5101139662        RI LUO RI CHU                           GEORGE LAM/LIN ZHEN QIANG                                   100000000000000000000301400+0000235+MECHAN       000000570000000001282400000000675
007543          3984263142        REN HAI ZHONG YI GE NI                  GEORGE LAM/LIN ZHEN QIANG                                   100000000000000000000151300+0000118+MECHAN       000000570000000001282400000000675
007543          5050467543324     REN HAI ZHONG YI GE NI                  GEORGE LAM/LIN ZHEN QIANG                                   100000000000000000000255000+0000038+MECHAN       000001690000000006709900000000675
007543          5051011972720     REN HAI ZHONG YI GE NI                  GEORGE LAM/LIN ZHEN QIANG                                   100000000000000000000278000+0000228+MECHAN       000001030000000001219500000000675
007543          5051442268225     REN HAI ZHONG YI GE NI                  GEORGE LAM/LIN ZHEN QIANG                                   100000000000000000000001300-0000001-MECHAN       000001880000000001269000000000675
007543          5052498441020     REN HAI ZHONG YI GE NI                  GEORGE LAM/LIN ZHEN QIANG                                   100000000000000000000339000+0000339+MECHAN       000001310000000001000000000000675
007543          5052498562770     REN HAI ZHONG YI GE NI                  GEORGE LAM/LIN ZHEN QIANG                                   100000000000000000000007700+0000001+MECHAN       000001140000000007695000000000675
007543          5052498619320     REN HAI ZHONG YI GE NI                  GEORGE LAM/LIN ZHEN QIANG                                   100000000000000000000089600+0000018+MECHAN       000000590000000004978100000000675
007543          5052498712328     REN HAI ZHONG YI GE NI                  GEORGE LAM/LIN ZHEN QIANG                                   100000000000000000000894000+0000894+MECHAN       000001310000000001000000000000675
007543          5101139662        REN HAI ZHONG YI GE NI                  GEORGE LAM/LIN ZHEN QIANG                                   100000000000000000000301400+0000235+MECHAN       000000570000000001282400000000675
007552          5052498460526     NEI JIU                                 ISMAIL AHMAD NAWAB/DALINA/KA LONG                           100000000000000000000176900+0000022+MECHAN       000001310000000008038700000000675
007582          5052498744923     LIU LIAN                                LIU XIAN DE/ZHOU LI MAO                                     100000000000000000000070500+0000023+MECHAN       000000590000000003063300000000675
007584          5052498742523     DENG WAN MENG JIAN SHI NI               DU ZI CHI/LIN XI                                            100000000000000000000051800+0000013+MECHAN       000000590000000003982500000000675
007626          5052498514922     WU YE                                   LIN ZHEN QIANG/TANG DI SHENG/CHRIS BABID                    050000000000000000000061400+0000037+MECHAN       000000590000000003320200000000675
007626          5053105112029     WU YE                                   LIN ZHEN QIANG/TANG DI SHENG/CHRIS BABID                    050000000000000000000520600+0000366+MECHAN       000000590000000002844700000000675
007626          5101139762        WU YE                                   LIN ZHEN QIANG/TANG DI SHENG/CHRIS BABID                    050000000000000000000017600+0000017+MECHAN       000000460000000002070100000000675
007630          5052498490424     FENG KUANG QING ZHU HUI                 LIN MU DE/LIN ZHEN QIANG                                    100000000000000000000072400+0000020+MECHAN       000000590000000003620500000000675
007650          5052498744923     TONG JI ZHE                             TAI JI/LIN ZHEN QIANG                                       100000000000000000000070500+0000023+MECHAN       000000590000000003063300000000675
007650          5053105647620     TONG JI ZHE                             TAI JI/LIN ZHEN QIANG                                       100000000000000000001062000+0000160+MECHAN       000000590000000006637600000000675
007650          5101139682        TONG JI ZHE                             TAI JI/LIN ZHEN QIANG                                       100000000000000000000110300+0000086+MECHAN       000000570000000001282400000000675
007651          5052498744923     LIU ZHU WO BA                           PAN WEI YUAN/TAI JI                                         100000000000000000000070500+0000023+MECHAN       000000590000000003063300000000675
007651          5053105647620     LIU ZHU WO BA                           PAN WEI YUAN/TAI JI                                         100000000000000000001062000+0000160+MECHAN       000000590000000006637600000000675
007651          5101139682        LIU ZHU WO BA                           PAN WEI YUAN/TAI JI                                         100000000000000000000110600+0000086+MECHAN       000000570000000001286200000000675
007653          5051865913023     DING TIAN LI DI                         TAI JI/LIN ZHEN QIANG                                       100000000000000000000043200+0000033+MECHAN       000000930000000001307600000000675
007653          5101139682        DING TIAN LI DI                         TAI JI/LIN ZHEN QIANG                                       100000000000000000000110300+0000086+MECHAN       000000570000000001282400000000675
007684          5051011972720     JIAO CHU YI QIE                         GEORGE LAM/YIN KUI                                          100000000000000000000278000+0000228+MECHAN       000001030000000001219500000000675
007725          0016861776558     6:00                                    DREAM THEATER/KEVIN MOORE                                   100000000000000000000011000+0000011+MECHAN       000000980000000001000000000000675
007725          0081227976309     6:00                                    DREAM THEATER/KEVIN MOORE                                   100000000000000000000032500+0000018+MECHAN       000001310000000001804800000000675
007725          7567901262        6:00                                    DREAM THEATER/KEVIN MOORE                                   100000000000000000000014500+0000004+MECHAN       000000590000000003620100000000675
007769          5052498514922     QING QING SHAN HU DAO                   BAO BI DA/KA LONG                                           100000000000000000000122800+0000037+MECHAN       000000590000000003318600000000675
007769          5053105112029     QING QING SHAN HU DAO                   BAO BI DA/KA LONG                                           100000000000000000001041200+0000366+MECHAN       000000590000000002844700000000675
007815          0090317786025     NI HAI YAO SHI MO                       CHEN KE HUA/CHEN ZHI YUAN                                   100000000000000000000023600+0000005+MECHAN       000000700000000004725000000000675
007844          5053105464821     MIAN DUI MIAN                           PAN WEI YUAN/BI LI                                          100000000000000000000482000+0000482+MECHAN       000001310000000001000000000000675
007857          0081227991791     7 DEADLY SINS                           TRAVELING WILBURYS                                          050000000000000000000001500+0000001+MECHAN       000000590000000003063300000000675
007857          812279982         7 DEADLY SINS                           TRAVELING WILBURYS                                          050000000000000000000015700+0000011+MECHAN       000001310000000002852600000000675
008029          3984263082        NI SHI WO XIONG KOU YONG YUAN DE TONG   DING XIAO WEN/CHEN XIU NAN/CHEN SHAO QI                     050000000000000000000066000+0000103+MECHAN       000000570000000001282400000000675
008029          5046652062        NI SHI WO XIONG KOU YONG YUAN DE TONG   DING XIAO WEN/CHEN XIU NAN/CHEN SHAO QI                     050000000000000000000010300+0000014+MECHAN       000000700000000001476600000000675
008029          5051865451228     NI SHI WO XIONG KOU YONG YUAN DE TONG   DING XIAO WEN/CHEN XIU NAN/CHEN SHAO QI                     050000000000000000000871000+0001742+MECHAN       000001470000000001000000000000675
008029          5101140222        NI SHI WO XIONG KOU YONG YUAN DE TONG   DING XIAO WEN/CHEN XIU NAN/CHEN SHAO QI                     050000000000000000000026300+0000041+MECHAN       000000570000000001282400000000675
008029          510119778         NI SHI WO XIONG KOU YONG YUAN DE TONG   DING XIAO WEN/CHEN XIU NAN/CHEN SHAO QI                     050000000000000000000242700+0000199+MECHAN       000001030000000002438900000000675
008029          8573849802        NI SHI WO XIONG KOU YONG YUAN DE TONG   DING XIAO WEN/CHEN XIU NAN/CHEN SHAO QI                     050000000000000000000041200+0000032+MECHAN       000001030000000002575200000000675
008029          9031779762        NI SHI WO XIONG KOU YONG YUAN DE TONG   DING XIAO WEN/CHEN XIU NAN/CHEN SHAO QI                     050000000000000000000021300+0000009+MECHAN       000000700000000004725000000000675
008063          5052498742523     BIE HUA                                 YANG LI MEN                                                 100000000000000000000051800+0000013+MECHAN       000000590000000003982500000000675
008081          9031779222        BEI JU                                  HUANG PI WEN                                                100000000000000000000009500+0000002+MECHAN       000000700000000004725000000000675
008090          9031779732        MENG XING DE WO                         CHEN LE RONG/LU GUO LIANG                                   100000000000000000000023600+0000005+MECHAN       000000700000000004725000000000675
008152          5101139762        JIN CAO JIAO HUA                        ZHOU CONG/GUANG TIAN PEI                                    100000000000000000000035200+0000017+MECHAN       000000460000000002068600000000675
008154          3984263132        BU                                      ZHENG GUO JIANG/BAO BI DA                                   100000000000000000000206500+0000161+MECHAN       000000570000000001282400000000675
008154          5052498410828     BU                                      ZHENG GUO JIANG/BAO BI DA                                   100000000000000000000146000+0000044+MECHAN       000000590000000003318600000000675
008154          5052498414024     BU                                      ZHENG GUO JIANG/BAO BI DA                                   100000000000000000000484500+0000146+MECHAN       000000590000000003318600000000675
008154          5053105003426     BU                                      ZHENG GUO JIANG/BAO BI DA                                   100000000000000000000099000+0000011+MECHAN       000001600000000008999600000000675
008155          5052498490424     MAO NU REN                              CHRIS BABIDA/LIN ZHEN QIANG                                 100000000000000000000072400+0000020+MECHAN       000000590000000003620500000000675
008178          5052498620227     XI GUAN YU NI YI QI                     ZHOU QI SHENG/XIAO MEI                                      100000000000000000000251200+0000082+MECHAN       000000590000000003063300000000675
008178          5101139782        XI GUAN YU NI YI QI                     ZHOU QI SHENG/XIAO MEI                                      100000000000000000000066700+0000052+MECHAN       000000570000000001282400000000675
008187          5051011972720     ZAI JIAN YANG LIU                       GEORGE LAM/ZHENG GUO JIANG                                  100000000000000000000278000+0000228+MECHAN       000001030000000001219500000000675
008187          5052498564927     ZAI JIAN YANG LIU                       GEORGE LAM/ZHENG GUO JIANG                                  100000000000000000000089600+0000013+MECHAN       000001430000000006894800000000675
008187          5052498712328     ZAI JIAN YANG LIU                       GEORGE LAM/ZHENG GUO JIANG                                  100000000000000000000894000+0000894+MECHAN       000001310000000001000000000000675
008187          5053105002528     ZAI JIAN YANG LIU                       GEORGE LAM/ZHENG GUO JIANG                                  100000000000000000000162000+0000018+MECHAN       000001600000000008999600000000675
008187          5053105255818     ZAI JIAN YANG LIU                       GEORGE LAM/ZHENG GUO JIANG                                  100000000000000000001994800+0000286+MECHAN       000001240000000006974700000000675
008231          5053105647521     WO SHI SHUI                             LOU DA YOU/PAN YUAN LIANG                                   050000000000000000000659100+0000331+MECHAN       000000590000000003982500000000675
008232          5101139732        WU HAN                                  LU GUAN TING/PAN YUAN LIANG                                 100000000000000000000100000+0000078+MECHAN       000000570000000001282400000000675
008232          510119759         WU HAN                                  LU GUAN TING/PAN YUAN LIANG                                 100000000000000000000153500+0000117+MECHAN       000001030000000001311900000000675
008262          3984263132        YI SHENG BU KE ZI JUE                   LAI JIAN CONG/XIANG XUE HUAI                                100000000000000000000206500+0000161+MECHAN       000000570000000001282400000000675
008262          3984291562        YI SHENG BU KE ZI JUE                   LAI JIAN CONG/XIANG XUE HUAI                                100000000000000000000130100+0000092+MECHAN       000000444600000001414500000000700
008262          5051865183822     YI SHENG BU KE ZI JUE                   LAI JIAN CONG/XIANG XUE HUAI                                100000000000000000000448900+0000245+MECHAN       000001140000000001832200000000675
008262          5053105642311     YI SHENG BU KE ZI JUE                   LAI JIAN CONG/XIANG XUE HUAI                                100000000000000000004950400+0000828+MECHAN       000001240000000005978700000000675
008262          5101139672        YI SHENG BU KE ZI JUE                   LAI JIAN CONG/XIANG XUE HUAI                                100000000000000000000627100+0000489+MECHAN       000000570000000001282400000000675
008262          510119726         YI SHENG BU KE ZI JUE                   LAI JIAN CONG/XIANG XUE HUAI                                100000000000000000000934100+0000383+MECHAN       000001030000000002438900000000675
008273          5052498619221     YE DE XIN                               S PARCARA/J BETTIS/ZHOU LI MAO                              033340000000000000000038500+0000029+MECHAN       000000590000000003982500000000675
008283          5101139682        HOU HUI                                 TAI JI/YIN KUI                                              100000000000000000000110300+0000086+MECHAN       000000570000000001282400000000675
008299          5101139732        QIAN CHEN                               DICK LEE/ZHOU LI MAO/ZHANG FANG LU                          100000000000000000000100000+0000078+MECHAN       000000570000000001282400000000675
008415          5052498490127     QING NAN ZI JIN                         CREATORE/PERROTTI/WEISS/ZHENG GUO JIANG                     100000000000000000000052100+0000017+MECHAN       000000590000000003063300000000675
008428          0090317786025     BEI PING DE MENG                        DONG WEI/TANG YI CONG                                       100000000000000000000023600+0000005+MECHAN       000000700000000004725000000000675
008476          5051865451228     ZHE YANG AI NI DUI BU DUI %%%           LI ZONG SHENG                                               100000000000000000001742000+0001742+MECHAN       000001470000000001000000000000675
008642          5052498440924     XIN YIN XIN                             YAO DA WEI                                                  100000000000000000000063700+0000016+MECHAN       000000590000000003982500000000675
008655          5053105256112     WEI HE SHI NI                           XU RI QIN/PAN YUAN LIANG                                    100000000000000000001841300+0000286+MECHAN       000001240000000006438200000000675
008655          5053105464821     WEI HE SHI NI                           XU RI QIN/PAN YUAN LIANG                                    100000000000000000000482000+0000482+MECHAN       000001310000000001000000000000675
008656          5052498744923     ZUO NONG                                LEI YOU YAO/CAI YAN BING                                    100000000000000000000070500+0000023+MECHAN       000000590000000003063300000000675
008656          5053105647620     ZUO NONG                                LEI YOU YAO/CAI YAN BING                                    100000000000000000001062000+0000160+MECHAN       000000590000000006637600000000675
008656          5101139682        ZUO NONG                                LEI YOU YAO/CAI YAN BING                                    100000000000000000000110300+0000086+MECHAN       000000570000000001282400000000675
008749          5052498620227     WU YE TU PO                             ZHOU QI SHENG/YIN KUI                                       100000000000000000000251200+0000082+MECHAN       000000590000000003063300000000675
008749          5101139782        WU YE TU PO                             ZHOU QI SHENG/YIN KUI                                       100000000000000000000066700+0000052+MECHAN       000000570000000001282400000000675
008755          510119759         AI JI MEI GUI 1000 DA                   TANG YI CONG/ZHOU LI MAO                                    100000000000000000000153500+0000117+MECHAN       000001030000000001311900000000675
008761          3984263142        SHUI NENG MING BAI WO                   GEORGE LAM/ZHENG GUO JIANG                                  100000000000000000000151300+0000118+MECHAN       000000570000000001282400000000675
008761          5050467543324     SHUI NENG MING BAI WO                   GEORGE LAM/ZHENG GUO JIANG                                  100000000000000000000255200+0000038+MECHAN       000001690000000006716700000000675
008761          5051011972720     SHUI NENG MING BAI WO                   GEORGE LAM/ZHENG GUO JIANG                                  100000000000000000000556100+0000228+MECHAN       000001030000000002438900000000675
008761          5051442268225     SHUI NENG MING BAI WO                   GEORGE LAM/ZHENG GUO JIANG                                  100000000000000000000001300-0000001-MECHAN       000001880000000001269000000000675
008761          5052498441020     SHUI NENG MING BAI WO                   GEORGE LAM/ZHENG GUO JIANG                                  100000000000000000000339000+0000339+MECHAN       000001310000000001000000000000675
008761          5052498562428     SHUI NENG MING BAI WO                   GEORGE LAM/ZHENG GUO JIANG                                  100000000000000000000007700+0000001+MECHAN       000001140000000007695000000000675
008761          5052498564927     SHUI NENG MING BAI WO                   GEORGE LAM/ZHENG GUO JIANG                                  100000000000000000000089600+0000013+MECHAN       000001430000000006894800000000675
008761          5052498712328     SHUI NENG MING BAI WO                   GEORGE LAM/ZHENG GUO JIANG                                  100000000000000000000894000+0000894+MECHAN       000001310000000001000000000000675
008761          5053105002528     SHUI NENG MING BAI WO                   GEORGE LAM/ZHENG GUO JIANG                                  100000000000000000000162000+0000018+MECHAN       000001600000000008999600000000675
008761          5053105255818     SHUI NENG MING BAI WO                   GEORGE LAM/ZHENG GUO JIANG                                  100000000000000000001994800+0000286+MECHAN       000001240000000006974700000000675
008761          5101139662        SHUI NENG MING BAI WO                   GEORGE LAM/ZHENG GUO JIANG                                  100000000000000000000302300+0000235+MECHAN       000000570000000001286200000000675
008779          5052498460526     JIE BAN TONG HANG                       J LEWIS/D LEWIS/W LEWIS/PAN YUAN LIANG                      100000000000000000000176900+0000022+MECHAN       000001310000000008038700000000675
008779          5052498712328     JIE BAN TONG HANG                       J LEWIS/D LEWIS/W LEWIS/PAN YUAN LIANG                      100000000000000000000894000+0000894+MECHAN       000001310000000001000000000000675
008802          5052498514922     XIN ZHONG ZHE FEN QING                  PAN WEI YUAN/CHRIS BABIDA                                   100000000000000000000122800+0000037+MECHAN       000000590000000003318600000000675
008802          5101139762        XIN ZHONG ZHE FEN QING                  PAN WEI YUAN/CHRIS BABIDA                                   100000000000000000000035200+0000017+MECHAN       000000460000000002070100000000675
008857          5052498414123     ZOU BU WAN DE LU                        RYO SHOJI/GEORGE YANAGI\LIN ZHEN QIANG                      100000000000000000000039800+0000011+MECHAN       000000590000000003620500000000675
008858          5052498441020     ZUI JIA PAI DANG                        XU GUAN JIE                                                 100000000000000000000339000+0000339+MECHAN       000001310000000001000000000000675
