050WAR0J914                                    F22CZK                                                                                                                                                                                                                                                                                                                                                                                                                                                                                                                                                                                                                                                                                                                                                                                                                                                                                                                                                                                                                                                                                       
050WAR1J91421I001081479             WITHOUT A TRACE                                                                                                         0KLIMEK JOHNNY                           WARNER CHAPPELL MUSIC S R O CZ          026619434900266194349050SE205000100000000001139201301201303TV COMMERCIAL  203CZECH REPUBLIC      00000001 F190043         0000000000000000FILSWARNER BROS.TV                                                             2006                                                                                                                                                      000WITHOUT A TRACE IV                                          BEZE STOPY IV                                               PATIENT X                                                   PACIENT X                                                                  82             000000000000003074U001000056000001900430C              00                                                                                                                                                                 I
050WAR1J91421I001470505             POKEMON DIAMOND AND PEARL                                                                                               0MIYAZAKI SHINJI                         WARNER CHAPPELL MUSIC S R O CZ          026619434900266194349050SE205000100000000001044201301201303TV COMMERCIAL  203CZECH REPUBLIC      00000002 F218979         0000000000000000FILSRAVE ENTERTAINMENT                                                         2007                                                                                                                                                      000POKEMON: DIAMOND AND PEARL                                  POKEMON: DIAMANT A PERLA                                    ARRIVAL OF A RIVAL!                                         SETKANI S PROTIVNIKEM                                                      12             000000000000001230U001000141000002189790C              00                                                                                                                                                                 I
050WAR1J91421I001470505             POKEMON DIAMOND AND PEARL                                                                                               0MIYAZAKI SHINJI                         WARNER CHAPPELL MUSIC S R O CZ          026619434900266194349050SE205000100000000000700201301201303TV COMMERCIAL  203CZECH REPUBLIC      00000001 F221477         0000000000000000FILSRAVE ENTERTAINMENT                                                         2007                                                                                                                                                      000POKEMON: DIAMOND AND PEARL                                  POKEMON: DIAMANT A PERLA                                    OH DO YOU KNOW THE POFFIN PLAN                              VELKY SLADKY POFFINOVY PRIBEH                                              25             000000000000001083U001000189000002214770C              00                                                                                                                                                                 I
050WAR1J91421I000390567             TOM & JERRY KIDS                                                                                                        0LIONELLI GARY CARMINE                   WARNER CHAPPELL MUSIC S R O CZ          026619434900266194349050SE205000100000000001337201301201303TV COMMERCIAL  203CZECH REPUBLIC      00000001 F227001         0000000000000000FILSHANNA-BARBERA PRODS.,INC.                                                  1992                                                                                                                                                      000TOM AND JERRY KIDS                                          KLUKOVINY TOMA A JERRYHO                                    MC WEREWOLF OF LONDON                                       MCVLKODLAK Z LONDYNA                                                       106            000000000000000366U001000361000002270010C              00                                                                                                                                                                 I
050WAR1J91421I000390544             TOM & JERRY KIDS                                                                                                        0BARBERA JOSEPH R                        WARNER CHAPPELL MUSIC S R O CZ          026619434900266194349050SE205000100000000000019201301201303TV COMMERCIAL  203CZECH REPUBLIC      00000001 F227952         0000000000000000FILSHANNA-BARBERA CARTOONS,INC.                                                1992                                                                                                                                                      000TOM AND JERRY KIDS                                          KLUKOVINY TOMA A JERRYHO                                    RETURN OF THE ANTS                                          MRAVENCI SE VRACI                                                          119            000000000000000289U001000005000002279520C              00                                                                                                                                                                 I
050WAR90000008695000000000004239C000000869500000000000000000000                                                                                                                                                                                                                                                                                                                                                                                                                                                                                                                                                                                                                                                                                                                                                                                                                                                                                                                                                                                                                                                                             
